{
	"contracts/Programa/SCConectados/Multiplier.sol": {
		"Multiplier": {
			"abi": [
				{
					"inputs": [
						{
							"internalType": "address",
							"name": "resultado_",
							"type": "address"
						}
					],
					"stateMutability": "nonpayable",
					"type": "constructor"
				},
				{
					"inputs": [],
					"name": "dirResultado",
					"outputs": [
						{
							"internalType": "address",
							"name": "",
							"type": "address"
						}
					],
					"stateMutability": "view",
					"type": "function"
				},
				{
					"inputs": [
						{
							"internalType": "uint256",
							"name": "num1_",
							"type": "uint256"
						},
						{
							"internalType": "uint256",
							"name": "num2_",
							"type": "uint256"
						}
					],
					"name": "multiplier",
					"outputs": [],
					"stateMutability": "nonpayable",
					"type": "function"
				},
				{
					"inputs": [
						{
							"internalType": "uint256",
							"name": "newFee_",
							"type": "uint256"
						}
					],
					"name": "setFee",
					"outputs": [],
					"stateMutability": "nonpayable",
					"type": "function"
				}
			],
			"devdoc": {
				"kind": "dev",
				"methods": {},
				"version": 1
			},
			"evm": {
				"assembly": "    /* \"contracts/Programa/SCConectados/Multiplier.sol\":141:764  contract Multiplier {... */\n  mstore(0x40, 0x80)\n    /* \"contracts/Programa/SCConectados/Multiplier.sol\":269:346  constructor(address resultado_) {... */\n  callvalue\n  dup1\n  iszero\n  tag_1\n  jumpi\n  revert(0x00, 0x00)\ntag_1:\n  pop\n  mload(0x40)\n  sub(codesize, bytecodeSize)\n  dup1\n  bytecodeSize\n  dup4\n  codecopy\n  dup2\n  dup2\n  add\n  0x40\n  mstore\n  dup2\n  add\n  swap1\n  tag_2\n  swap2\n  swap1\n  tag_3\n  jump\t// in\ntag_2:\n    /* \"contracts/Programa/SCConectados/Multiplier.sol\":327:337  resultado_ */\n  dup1\n    /* \"contracts/Programa/SCConectados/Multiplier.sol\":312:324  dirResultado */\n  0x00\n  0x00\n    /* \"contracts/Programa/SCConectados/Multiplier.sol\":312:337  dirResultado = resultado_ */\n  0x0100\n  exp\n  dup2\n  sload\n  dup2\n  0xffffffffffffffffffffffffffffffffffffffff\n  mul\n  not\n  and\n  swap1\n  dup4\n  0xffffffffffffffffffffffffffffffffffffffff\n  and\n  mul\n  or\n  swap1\n  sstore\n  pop\n    /* \"contracts/Programa/SCConectados/Multiplier.sol\":269:346  constructor(address resultado_) {... */\n  pop\n    /* \"contracts/Programa/SCConectados/Multiplier.sol\":141:764  contract Multiplier {... */\n  jump(tag_6)\n    /* \"#utility.yul\":88:205   */\ntag_8:\n    /* \"#utility.yul\":197:198   */\n  0x00\n    /* \"#utility.yul\":194:195   */\n  0x00\n    /* \"#utility.yul\":187:199   */\n  revert\n    /* \"#utility.yul\":334:460   */\ntag_10:\n    /* \"#utility.yul\":371:378   */\n  0x00\n    /* \"#utility.yul\":411:453   */\n  0xffffffffffffffffffffffffffffffffffffffff\n    /* \"#utility.yul\":404:409   */\n  dup3\n    /* \"#utility.yul\":400:454   */\n  and\n    /* \"#utility.yul\":389:454   */\n  swap1\n  pop\n    /* \"#utility.yul\":334:460   */\n  swap2\n  swap1\n  pop\n  jump\t// out\n    /* \"#utility.yul\":466:562   */\ntag_11:\n    /* \"#utility.yul\":503:510   */\n  0x00\n    /* \"#utility.yul\":532:556   */\n  tag_20\n    /* \"#utility.yul\":550:555   */\n  dup3\n    /* \"#utility.yul\":532:556   */\n  tag_10\n  jump\t// in\ntag_20:\n    /* \"#utility.yul\":521:556   */\n  swap1\n  pop\n    /* \"#utility.yul\":466:562   */\n  swap2\n  swap1\n  pop\n  jump\t// out\n    /* \"#utility.yul\":568:690   */\ntag_12:\n    /* \"#utility.yul\":641:665   */\n  tag_22\n    /* \"#utility.yul\":659:664   */\n  dup2\n    /* \"#utility.yul\":641:665   */\n  tag_11\n  jump\t// in\ntag_22:\n    /* \"#utility.yul\":634:639   */\n  dup2\n    /* \"#utility.yul\":631:666   */\n  eq\n    /* \"#utility.yul\":621:684   */\n  tag_23\n  jumpi\n    /* \"#utility.yul\":680:681   */\n  0x00\n    /* \"#utility.yul\":677:678   */\n  0x00\n    /* \"#utility.yul\":670:682   */\n  revert\n    /* \"#utility.yul\":621:684   */\ntag_23:\n    /* \"#utility.yul\":568:690   */\n  pop\n  jump\t// out\n    /* \"#utility.yul\":696:839   */\ntag_13:\n    /* \"#utility.yul\":753:758   */\n  0x00\n    /* \"#utility.yul\":784:790   */\n  dup2\n    /* \"#utility.yul\":778:791   */\n  mload\n    /* \"#utility.yul\":769:791   */\n  swap1\n  pop\n    /* \"#utility.yul\":800:833   */\n  tag_25\n    /* \"#utility.yul\":827:832   */\n  dup2\n    /* \"#utility.yul\":800:833   */\n  tag_12\n  jump\t// in\ntag_25:\n    /* \"#utility.yul\":696:839   */\n  swap3\n  swap2\n  pop\n  pop\n  jump\t// out\n    /* \"#utility.yul\":845:1196   */\ntag_3:\n    /* \"#utility.yul\":915:921   */\n  0x00\n    /* \"#utility.yul\":964:966   */\n  0x20\n    /* \"#utility.yul\":952:961   */\n  dup3\n    /* \"#utility.yul\":943:950   */\n  dup5\n    /* \"#utility.yul\":939:962   */\n  sub\n    /* \"#utility.yul\":935:967   */\n  slt\n    /* \"#utility.yul\":932:1051   */\n  iszero\n  tag_27\n  jumpi\n    /* \"#utility.yul\":970:1049   */\n  tag_28\n  tag_8\n  jump\t// in\ntag_28:\n    /* \"#utility.yul\":932:1051   */\ntag_27:\n    /* \"#utility.yul\":1090:1091   */\n  0x00\n    /* \"#utility.yul\":1115:1179   */\n  tag_29\n    /* \"#utility.yul\":1171:1178   */\n  dup5\n    /* \"#utility.yul\":1162:1168   */\n  dup3\n    /* \"#utility.yul\":1151:1160   */\n  dup6\n    /* \"#utility.yul\":1147:1169   */\n  add\n    /* \"#utility.yul\":1115:1179   */\n  tag_13\n  jump\t// in\ntag_29:\n    /* \"#utility.yul\":1105:1179   */\n  swap2\n  pop\n    /* \"#utility.yul\":1061:1189   */\n  pop\n    /* \"#utility.yul\":845:1196   */\n  swap3\n  swap2\n  pop\n  pop\n  jump\t// out\n    /* \"contracts/Programa/SCConectados/Multiplier.sol\":141:764  contract Multiplier {... */\ntag_6:\n  dataSize(sub_0)\n  dup1\n  dataOffset(sub_0)\n  0x00\n  codecopy\n  0x00\n  return\nstop\n\nsub_0: assembly {\n        /* \"contracts/Programa/SCConectados/Multiplier.sol\":141:764  contract Multiplier {... */\n      mstore(0x40, 0x80)\n      callvalue\n      dup1\n      iszero\n      tag_1\n      jumpi\n      revert(0x00, 0x00)\n    tag_1:\n      pop\n      jumpi(tag_2, lt(calldatasize, 0x04))\n      shr(0xe0, calldataload(0x00))\n      dup1\n      0x153f45db\n      eq\n      tag_3\n      jumpi\n      dup1\n      0x69fe0e2d\n      eq\n      tag_4\n      jumpi\n      dup1\n      0xe941b9ac\n      eq\n      tag_5\n      jumpi\n    tag_2:\n      revert(0x00, 0x00)\n        /* \"contracts/Programa/SCConectados/Multiplier.sol\":229:256  address public dirResultado */\n    tag_3:\n      tag_6\n      tag_7\n      jump\t// in\n    tag_6:\n      mload(0x40)\n      tag_8\n      swap2\n      swap1\n      tag_9\n      jump\t// in\n    tag_8:\n      mload(0x40)\n      dup1\n      swap2\n      sub\n      swap1\n      return\n        /* \"contracts/Programa/SCConectados/Multiplier.sol\":624:725  function setFee(uint256 newFee_) external {... */\n    tag_4:\n      tag_10\n      0x04\n      dup1\n      calldatasize\n      sub\n      dup2\n      add\n      swap1\n      tag_11\n      swap2\n      swap1\n      tag_12\n      jump\t// in\n    tag_11:\n      tag_13\n      jump\t// in\n    tag_10:\n      stop\n        /* \"contracts/Programa/SCConectados/Multiplier.sol\":441:616  function multiplier(uint256 num1_ , uint256 num2_) external {... */\n    tag_5:\n      tag_14\n      0x04\n      dup1\n      calldatasize\n      sub\n      dup2\n      add\n      swap1\n      tag_15\n      swap2\n      swap1\n      tag_16\n      jump\t// in\n    tag_15:\n      tag_17\n      jump\t// in\n    tag_14:\n      stop\n        /* \"contracts/Programa/SCConectados/Multiplier.sol\":229:256  address public dirResultado */\n    tag_7:\n      0x00\n      0x00\n      swap1\n      sload\n      swap1\n      0x0100\n      exp\n      swap1\n      div\n      0xffffffffffffffffffffffffffffffffffffffff\n      and\n      dup2\n      jump\t// out\n        /* \"contracts/Programa/SCConectados/Multiplier.sol\":624:725  function setFee(uint256 newFee_) external {... */\n    tag_13:\n        /* \"contracts/Programa/SCConectados/Multiplier.sol\":688:700  dirResultado */\n      0x00\n      0x00\n      swap1\n      sload\n      swap1\n      0x0100\n      exp\n      swap1\n      div\n      0xffffffffffffffffffffffffffffffffffffffff\n      and\n        /* \"contracts/Programa/SCConectados/Multiplier.sol\":677:708  IResultado(dirResultado).setFee */\n      0xffffffffffffffffffffffffffffffffffffffff\n      and\n      0x69fe0e2d\n        /* \"contracts/Programa/SCConectados/Multiplier.sol\":709:716  newFee_ */\n      dup3\n        /* \"contracts/Programa/SCConectados/Multiplier.sol\":677:717  IResultado(dirResultado).setFee(newFee_) */\n      mload(0x40)\n      dup3\n      0xffffffff\n      and\n      0xe0\n      shl\n      dup2\n      mstore\n      0x04\n      add\n      tag_19\n      swap2\n      swap1\n      tag_20\n      jump\t// in\n    tag_19:\n      0x00\n      mload(0x40)\n      dup1\n      dup4\n      sub\n      dup2\n      0x00\n      dup8\n      dup1\n      extcodesize\n      iszero\n      dup1\n      iszero\n      tag_21\n      jumpi\n      revert(0x00, 0x00)\n    tag_21:\n      pop\n      gas\n      call\n      iszero\n      dup1\n      iszero\n      tag_23\n      jumpi\n      returndatacopy(0x00, 0x00, returndatasize)\n      revert(0x00, returndatasize)\n    tag_23:\n      pop\n      pop\n      pop\n      pop\n        /* \"contracts/Programa/SCConectados/Multiplier.sol\":624:725  function setFee(uint256 newFee_) external {... */\n      pop\n      jump\t// out\n        /* \"contracts/Programa/SCConectados/Multiplier.sol\":441:616  function multiplier(uint256 num1_ , uint256 num2_) external {... */\n    tag_17:\n        /* \"contracts/Programa/SCConectados/Multiplier.sol\":512:530  uint256 resultado_ */\n      0x00\n        /* \"contracts/Programa/SCConectados/Multiplier.sol\":541:546  num2_ */\n      dup2\n        /* \"contracts/Programa/SCConectados/Multiplier.sol\":533:538  num1_ */\n      dup4\n        /* \"contracts/Programa/SCConectados/Multiplier.sol\":533:546  num1_ * num2_ */\n      tag_25\n      swap2\n      swap1\n      tag_26\n      jump\t// in\n    tag_25:\n        /* \"contracts/Programa/SCConectados/Multiplier.sol\":512:546  uint256 resultado_ = num1_ * num2_ */\n      swap1\n      pop\n        /* \"contracts/Programa/SCConectados/Multiplier.sol\":570:582  dirResultado */\n      0x00\n      0x00\n      swap1\n      sload\n      swap1\n      0x0100\n      exp\n      swap1\n      div\n      0xffffffffffffffffffffffffffffffffffffffff\n      and\n        /* \"contracts/Programa/SCConectados/Multiplier.sol\":559:596  IResultado(dirResultado).setResultado */\n      0xffffffffffffffffffffffffffffffffffffffff\n      and\n      0x7e0a7def\n        /* \"contracts/Programa/SCConectados/Multiplier.sol\":597:607  resultado_ */\n      dup3\n        /* \"contracts/Programa/SCConectados/Multiplier.sol\":559:608  IResultado(dirResultado).setResultado(resultado_) */\n      mload(0x40)\n      dup3\n      0xffffffff\n      and\n      0xe0\n      shl\n      dup2\n      mstore\n      0x04\n      add\n      tag_27\n      swap2\n      swap1\n      tag_20\n      jump\t// in\n    tag_27:\n      0x00\n      mload(0x40)\n      dup1\n      dup4\n      sub\n      dup2\n      0x00\n      dup8\n      dup1\n      extcodesize\n      iszero\n      dup1\n      iszero\n      tag_28\n      jumpi\n      revert(0x00, 0x00)\n    tag_28:\n      pop\n      gas\n      call\n      iszero\n      dup1\n      iszero\n      tag_30\n      jumpi\n      returndatacopy(0x00, 0x00, returndatasize)\n      revert(0x00, returndatasize)\n    tag_30:\n      pop\n      pop\n      pop\n      pop\n        /* \"contracts/Programa/SCConectados/Multiplier.sol\":501:616  {... */\n      pop\n        /* \"contracts/Programa/SCConectados/Multiplier.sol\":441:616  function multiplier(uint256 num1_ , uint256 num2_) external {... */\n      pop\n      pop\n      jump\t// out\n        /* \"#utility.yul\":7:133   */\n    tag_31:\n        /* \"#utility.yul\":44:51   */\n      0x00\n        /* \"#utility.yul\":84:126   */\n      0xffffffffffffffffffffffffffffffffffffffff\n        /* \"#utility.yul\":77:82   */\n      dup3\n        /* \"#utility.yul\":73:127   */\n      and\n        /* \"#utility.yul\":62:127   */\n      swap1\n      pop\n        /* \"#utility.yul\":7:133   */\n      swap2\n      swap1\n      pop\n      jump\t// out\n        /* \"#utility.yul\":139:235   */\n    tag_32:\n        /* \"#utility.yul\":176:183   */\n      0x00\n        /* \"#utility.yul\":205:229   */\n      tag_45\n        /* \"#utility.yul\":223:228   */\n      dup3\n        /* \"#utility.yul\":205:229   */\n      tag_31\n      jump\t// in\n    tag_45:\n        /* \"#utility.yul\":194:229   */\n      swap1\n      pop\n        /* \"#utility.yul\":139:235   */\n      swap2\n      swap1\n      pop\n      jump\t// out\n        /* \"#utility.yul\":241:359   */\n    tag_33:\n        /* \"#utility.yul\":328:352   */\n      tag_47\n        /* \"#utility.yul\":346:351   */\n      dup2\n        /* \"#utility.yul\":328:352   */\n      tag_32\n      jump\t// in\n    tag_47:\n        /* \"#utility.yul\":323:326   */\n      dup3\n        /* \"#utility.yul\":316:353   */\n      mstore\n        /* \"#utility.yul\":241:359   */\n      pop\n      pop\n      jump\t// out\n        /* \"#utility.yul\":365:587   */\n    tag_9:\n        /* \"#utility.yul\":458:462   */\n      0x00\n        /* \"#utility.yul\":496:498   */\n      0x20\n        /* \"#utility.yul\":485:494   */\n      dup3\n        /* \"#utility.yul\":481:499   */\n      add\n        /* \"#utility.yul\":473:499   */\n      swap1\n      pop\n        /* \"#utility.yul\":509:580   */\n      tag_49\n        /* \"#utility.yul\":577:578   */\n      0x00\n        /* \"#utility.yul\":566:575   */\n      dup4\n        /* \"#utility.yul\":562:579   */\n      add\n        /* \"#utility.yul\":553:559   */\n      dup5\n        /* \"#utility.yul\":509:580   */\n      tag_33\n      jump\t// in\n    tag_49:\n        /* \"#utility.yul\":365:587   */\n      swap3\n      swap2\n      pop\n      pop\n      jump\t// out\n        /* \"#utility.yul\":674:791   */\n    tag_35:\n        /* \"#utility.yul\":783:784   */\n      0x00\n        /* \"#utility.yul\":780:781   */\n      0x00\n        /* \"#utility.yul\":773:785   */\n      revert\n        /* \"#utility.yul\":920:997   */\n    tag_37:\n        /* \"#utility.yul\":957:964   */\n      0x00\n        /* \"#utility.yul\":986:991   */\n      dup2\n        /* \"#utility.yul\":975:991   */\n      swap1\n      pop\n        /* \"#utility.yul\":920:997   */\n      swap2\n      swap1\n      pop\n      jump\t// out\n        /* \"#utility.yul\":1003:1125   */\n    tag_38:\n        /* \"#utility.yul\":1076:1100   */\n      tag_55\n        /* \"#utility.yul\":1094:1099   */\n      dup2\n        /* \"#utility.yul\":1076:1100   */\n      tag_37\n      jump\t// in\n    tag_55:\n        /* \"#utility.yul\":1069:1074   */\n      dup2\n        /* \"#utility.yul\":1066:1101   */\n      eq\n        /* \"#utility.yul\":1056:1119   */\n      tag_56\n      jumpi\n        /* \"#utility.yul\":1115:1116   */\n      0x00\n        /* \"#utility.yul\":1112:1113   */\n      0x00\n        /* \"#utility.yul\":1105:1117   */\n      revert\n        /* \"#utility.yul\":1056:1119   */\n    tag_56:\n        /* \"#utility.yul\":1003:1125   */\n      pop\n      jump\t// out\n        /* \"#utility.yul\":1131:1270   */\n    tag_39:\n        /* \"#utility.yul\":1177:1182   */\n      0x00\n        /* \"#utility.yul\":1215:1221   */\n      dup2\n        /* \"#utility.yul\":1202:1222   */\n      calldataload\n        /* \"#utility.yul\":1193:1222   */\n      swap1\n      pop\n        /* \"#utility.yul\":1231:1264   */\n      tag_58\n        /* \"#utility.yul\":1258:1263   */\n      dup2\n        /* \"#utility.yul\":1231:1264   */\n      tag_38\n      jump\t// in\n    tag_58:\n        /* \"#utility.yul\":1131:1270   */\n      swap3\n      swap2\n      pop\n      pop\n      jump\t// out\n        /* \"#utility.yul\":1276:1605   */\n    tag_12:\n        /* \"#utility.yul\":1335:1341   */\n      0x00\n        /* \"#utility.yul\":1384:1386   */\n      0x20\n        /* \"#utility.yul\":1372:1381   */\n      dup3\n        /* \"#utility.yul\":1363:1370   */\n      dup5\n        /* \"#utility.yul\":1359:1382   */\n      sub\n        /* \"#utility.yul\":1355:1387   */\n      slt\n        /* \"#utility.yul\":1352:1471   */\n      iszero\n      tag_60\n      jumpi\n        /* \"#utility.yul\":1390:1469   */\n      tag_61\n      tag_35\n      jump\t// in\n    tag_61:\n        /* \"#utility.yul\":1352:1471   */\n    tag_60:\n        /* \"#utility.yul\":1510:1511   */\n      0x00\n        /* \"#utility.yul\":1535:1588   */\n      tag_62\n        /* \"#utility.yul\":1580:1587   */\n      dup5\n        /* \"#utility.yul\":1571:1577   */\n      dup3\n        /* \"#utility.yul\":1560:1569   */\n      dup6\n        /* \"#utility.yul\":1556:1578   */\n      add\n        /* \"#utility.yul\":1535:1588   */\n      tag_39\n      jump\t// in\n    tag_62:\n        /* \"#utility.yul\":1525:1588   */\n      swap2\n      pop\n        /* \"#utility.yul\":1481:1598   */\n      pop\n        /* \"#utility.yul\":1276:1605   */\n      swap3\n      swap2\n      pop\n      pop\n      jump\t// out\n        /* \"#utility.yul\":1611:2085   */\n    tag_16:\n        /* \"#utility.yul\":1679:1685   */\n      0x00\n        /* \"#utility.yul\":1687:1693   */\n      0x00\n        /* \"#utility.yul\":1736:1738   */\n      0x40\n        /* \"#utility.yul\":1724:1733   */\n      dup4\n        /* \"#utility.yul\":1715:1722   */\n      dup6\n        /* \"#utility.yul\":1711:1734   */\n      sub\n        /* \"#utility.yul\":1707:1739   */\n      slt\n        /* \"#utility.yul\":1704:1823   */\n      iszero\n      tag_64\n      jumpi\n        /* \"#utility.yul\":1742:1821   */\n      tag_65\n      tag_35\n      jump\t// in\n    tag_65:\n        /* \"#utility.yul\":1704:1823   */\n    tag_64:\n        /* \"#utility.yul\":1862:1863   */\n      0x00\n        /* \"#utility.yul\":1887:1940   */\n      tag_66\n        /* \"#utility.yul\":1932:1939   */\n      dup6\n        /* \"#utility.yul\":1923:1929   */\n      dup3\n        /* \"#utility.yul\":1912:1921   */\n      dup7\n        /* \"#utility.yul\":1908:1930   */\n      add\n        /* \"#utility.yul\":1887:1940   */\n      tag_39\n      jump\t// in\n    tag_66:\n        /* \"#utility.yul\":1877:1940   */\n      swap3\n      pop\n        /* \"#utility.yul\":1833:1950   */\n      pop\n        /* \"#utility.yul\":1989:1991   */\n      0x20\n        /* \"#utility.yul\":2015:2068   */\n      tag_67\n        /* \"#utility.yul\":2060:2067   */\n      dup6\n        /* \"#utility.yul\":2051:2057   */\n      dup3\n        /* \"#utility.yul\":2040:2049   */\n      dup7\n        /* \"#utility.yul\":2036:2058   */\n      add\n        /* \"#utility.yul\":2015:2068   */\n      tag_39\n      jump\t// in\n    tag_67:\n        /* \"#utility.yul\":2005:2068   */\n      swap2\n      pop\n        /* \"#utility.yul\":1960:2078   */\n      pop\n        /* \"#utility.yul\":1611:2085   */\n      swap3\n      pop\n      swap3\n      swap1\n      pop\n      jump\t// out\n        /* \"#utility.yul\":2091:2209   */\n    tag_40:\n        /* \"#utility.yul\":2178:2202   */\n      tag_69\n        /* \"#utility.yul\":2196:2201   */\n      dup2\n        /* \"#utility.yul\":2178:2202   */\n      tag_37\n      jump\t// in\n    tag_69:\n        /* \"#utility.yul\":2173:2176   */\n      dup3\n        /* \"#utility.yul\":2166:2203   */\n      mstore\n        /* \"#utility.yul\":2091:2209   */\n      pop\n      pop\n      jump\t// out\n        /* \"#utility.yul\":2215:2437   */\n    tag_20:\n        /* \"#utility.yul\":2308:2312   */\n      0x00\n        /* \"#utility.yul\":2346:2348   */\n      0x20\n        /* \"#utility.yul\":2335:2344   */\n      dup3\n        /* \"#utility.yul\":2331:2349   */\n      add\n        /* \"#utility.yul\":2323:2349   */\n      swap1\n      pop\n        /* \"#utility.yul\":2359:2430   */\n      tag_71\n        /* \"#utility.yul\":2427:2428   */\n      0x00\n        /* \"#utility.yul\":2416:2425   */\n      dup4\n        /* \"#utility.yul\":2412:2429   */\n      add\n        /* \"#utility.yul\":2403:2409   */\n      dup5\n        /* \"#utility.yul\":2359:2430   */\n      tag_40\n      jump\t// in\n    tag_71:\n        /* \"#utility.yul\":2215:2437   */\n      swap3\n      swap2\n      pop\n      pop\n      jump\t// out\n        /* \"#utility.yul\":2443:2623   */\n    tag_41:\n        /* \"#utility.yul\":2491:2568   */\n      0x4e487b7100000000000000000000000000000000000000000000000000000000\n        /* \"#utility.yul\":2488:2489   */\n      0x00\n        /* \"#utility.yul\":2481:2569   */\n      mstore\n        /* \"#utility.yul\":2588:2592   */\n      0x11\n        /* \"#utility.yul\":2585:2586   */\n      0x04\n        /* \"#utility.yul\":2578:2593   */\n      mstore\n        /* \"#utility.yul\":2612:2616   */\n      0x24\n        /* \"#utility.yul\":2609:2610   */\n      0x00\n        /* \"#utility.yul\":2602:2617   */\n      revert\n        /* \"#utility.yul\":2629:3039   */\n    tag_26:\n        /* \"#utility.yul\":2669:2676   */\n      0x00\n        /* \"#utility.yul\":2692:2712   */\n      tag_74\n        /* \"#utility.yul\":2710:2711   */\n      dup3\n        /* \"#utility.yul\":2692:2712   */\n      tag_37\n      jump\t// in\n    tag_74:\n        /* \"#utility.yul\":2687:2712   */\n      swap2\n      pop\n        /* \"#utility.yul\":2726:2746   */\n      tag_75\n        /* \"#utility.yul\":2744:2745   */\n      dup4\n        /* \"#utility.yul\":2726:2746   */\n      tag_37\n      jump\t// in\n    tag_75:\n        /* \"#utility.yul\":2721:2746   */\n      swap3\n      pop\n        /* \"#utility.yul\":2781:2782   */\n      dup3\n        /* \"#utility.yul\":2778:2779   */\n      dup3\n        /* \"#utility.yul\":2774:2783   */\n      mul\n        /* \"#utility.yul\":2803:2833   */\n      tag_76\n        /* \"#utility.yul\":2821:2832   */\n      dup2\n        /* \"#utility.yul\":2803:2833   */\n      tag_37\n      jump\t// in\n    tag_76:\n        /* \"#utility.yul\":2792:2833   */\n      swap2\n      pop\n        /* \"#utility.yul\":2982:2983   */\n      dup3\n        /* \"#utility.yul\":2973:2980   */\n      dup3\n        /* \"#utility.yul\":2969:2984   */\n      div\n        /* \"#utility.yul\":2966:2967   */\n      dup5\n        /* \"#utility.yul\":2963:2985   */\n      eq\n        /* \"#utility.yul\":2943:2944   */\n      dup4\n        /* \"#utility.yul\":2936:2945   */\n      iszero\n        /* \"#utility.yul\":2916:2999   */\n      or\n        /* \"#utility.yul\":2893:3032   */\n      tag_77\n      jumpi\n        /* \"#utility.yul\":3012:3030   */\n      tag_78\n      tag_41\n      jump\t// in\n    tag_78:\n        /* \"#utility.yul\":2893:3032   */\n    tag_77:\n        /* \"#utility.yul\":2677:3039   */\n      pop\n        /* \"#utility.yul\":2629:3039   */\n      swap3\n      swap2\n      pop\n      pop\n      jump\t// out\n\n    auxdata: 0xa2646970667358221220080432a99721aadc767743253185dd44b241f8d0f7c769c48b82b10225498a6164736f6c634300081f0033\n}\n",
				"bytecode": {
					"linkReferences": {},
					"object": "608060405234801561000f575f5ffd5b506040516104b03803806104b0833981810160405281019061003191906100d4565b805f5f6101000a81548173ffffffffffffffffffffffffffffffffffffffff021916908373ffffffffffffffffffffffffffffffffffffffff160217905550506100ff565b5f5ffd5b5f73ffffffffffffffffffffffffffffffffffffffff82169050919050565b5f6100a38261007a565b9050919050565b6100b381610099565b81146100bd575f5ffd5b50565b5f815190506100ce816100aa565b92915050565b5f602082840312156100e9576100e8610076565b5b5f6100f6848285016100c0565b91505092915050565b6103a48061010c5f395ff3fe608060405234801561000f575f5ffd5b506004361061003f575f3560e01c8063153f45db1461004357806369fe0e2d14610061578063e941b9ac1461007d575b5f5ffd5b61004b610099565b604051610058919061021f565b60405180910390f35b61007b6004803603810190610076919061026f565b6100bd565b005b6100976004803603810190610092919061029a565b610146565b005b5f5f9054906101000a900473ffffffffffffffffffffffffffffffffffffffff1681565b5f5f9054906101000a900473ffffffffffffffffffffffffffffffffffffffff1673ffffffffffffffffffffffffffffffffffffffff166369fe0e2d826040518263ffffffff1660e01b815260040161011691906102e7565b5f604051808303815f87803b15801561012d575f5ffd5b505af115801561013f573d5f5f3e3d5ffd5b5050505050565b5f8183610153919061032d565b90505f5f9054906101000a900473ffffffffffffffffffffffffffffffffffffffff1673ffffffffffffffffffffffffffffffffffffffff16637e0a7def826040518263ffffffff1660e01b81526004016101ae91906102e7565b5f604051808303815f87803b1580156101c5575f5ffd5b505af11580156101d7573d5f5f3e3d5ffd5b50505050505050565b5f73ffffffffffffffffffffffffffffffffffffffff82169050919050565b5f610209826101e0565b9050919050565b610219816101ff565b82525050565b5f6020820190506102325f830184610210565b92915050565b5f5ffd5b5f819050919050565b61024e8161023c565b8114610258575f5ffd5b50565b5f8135905061026981610245565b92915050565b5f6020828403121561028457610283610238565b5b5f6102918482850161025b565b91505092915050565b5f5f604083850312156102b0576102af610238565b5b5f6102bd8582860161025b565b92505060206102ce8582860161025b565b9150509250929050565b6102e18161023c565b82525050565b5f6020820190506102fa5f8301846102d8565b92915050565b7f4e487b71000000000000000000000000000000000000000000000000000000005f52601160045260245ffd5b5f6103378261023c565b91506103428361023c565b92508282026103508161023c565b9150828204841483151761036757610366610300565b5b509291505056fea2646970667358221220080432a99721aadc767743253185dd44b241f8d0f7c769c48b82b10225498a6164736f6c634300081f0033",
					"opcodes": "PUSH1 0x80 PUSH1 0x40 MSTORE CALLVALUE DUP1 ISZERO PUSH2 0xF JUMPI PUSH0 PUSH0 REVERT JUMPDEST POP PUSH1 0x40 MLOAD PUSH2 0x4B0 CODESIZE SUB DUP1 PUSH2 0x4B0 DUP4 CODECOPY DUP2 DUP2 ADD PUSH1 0x40 MSTORE DUP2 ADD SWAP1 PUSH2 0x31 SWAP2 SWAP1 PUSH2 0xD4 JUMP JUMPDEST DUP1 PUSH0 PUSH0 PUSH2 0x100 EXP DUP2 SLOAD DUP2 PUSH20 0xFFFFFFFFFFFFFFFFFFFFFFFFFFFFFFFFFFFFFFFF MUL NOT AND SWAP1 DUP4 PUSH20 0xFFFFFFFFFFFFFFFFFFFFFFFFFFFFFFFFFFFFFFFF AND MUL OR SWAP1 SSTORE POP POP PUSH2 0xFF JUMP JUMPDEST PUSH0 PUSH0 REVERT JUMPDEST PUSH0 PUSH20 0xFFFFFFFFFFFFFFFFFFFFFFFFFFFFFFFFFFFFFFFF DUP3 AND SWAP1 POP SWAP2 SWAP1 POP JUMP JUMPDEST PUSH0 PUSH2 0xA3 DUP3 PUSH2 0x7A JUMP JUMPDEST SWAP1 POP SWAP2 SWAP1 POP JUMP JUMPDEST PUSH2 0xB3 DUP2 PUSH2 0x99 JUMP JUMPDEST DUP2 EQ PUSH2 0xBD JUMPI PUSH0 PUSH0 REVERT JUMPDEST POP JUMP JUMPDEST PUSH0 DUP2 MLOAD SWAP1 POP PUSH2 0xCE DUP2 PUSH2 0xAA JUMP JUMPDEST SWAP3 SWAP2 POP POP JUMP JUMPDEST PUSH0 PUSH1 0x20 DUP3 DUP5 SUB SLT ISZERO PUSH2 0xE9 JUMPI PUSH2 0xE8 PUSH2 0x76 JUMP JUMPDEST JUMPDEST PUSH0 PUSH2 0xF6 DUP5 DUP3 DUP6 ADD PUSH2 0xC0 JUMP JUMPDEST SWAP2 POP POP SWAP3 SWAP2 POP POP JUMP JUMPDEST PUSH2 0x3A4 DUP1 PUSH2 0x10C PUSH0 CODECOPY PUSH0 RETURN INVALID PUSH1 0x80 PUSH1 0x40 MSTORE CALLVALUE DUP1 ISZERO PUSH2 0xF JUMPI PUSH0 PUSH0 REVERT JUMPDEST POP PUSH1 0x4 CALLDATASIZE LT PUSH2 0x3F JUMPI PUSH0 CALLDATALOAD PUSH1 0xE0 SHR DUP1 PUSH4 0x153F45DB EQ PUSH2 0x43 JUMPI DUP1 PUSH4 0x69FE0E2D EQ PUSH2 0x61 JUMPI DUP1 PUSH4 0xE941B9AC EQ PUSH2 0x7D JUMPI JUMPDEST PUSH0 PUSH0 REVERT JUMPDEST PUSH2 0x4B PUSH2 0x99 JUMP JUMPDEST PUSH1 0x40 MLOAD PUSH2 0x58 SWAP2 SWAP1 PUSH2 0x21F JUMP JUMPDEST PUSH1 0x40 MLOAD DUP1 SWAP2 SUB SWAP1 RETURN JUMPDEST PUSH2 0x7B PUSH1 0x4 DUP1 CALLDATASIZE SUB DUP2 ADD SWAP1 PUSH2 0x76 SWAP2 SWAP1 PUSH2 0x26F JUMP JUMPDEST PUSH2 0xBD JUMP JUMPDEST STOP JUMPDEST PUSH2 0x97 PUSH1 0x4 DUP1 CALLDATASIZE SUB DUP2 ADD SWAP1 PUSH2 0x92 SWAP2 SWAP1 PUSH2 0x29A JUMP JUMPDEST PUSH2 0x146 JUMP JUMPDEST STOP JUMPDEST PUSH0 PUSH0 SWAP1 SLOAD SWAP1 PUSH2 0x100 EXP SWAP1 DIV PUSH20 0xFFFFFFFFFFFFFFFFFFFFFFFFFFFFFFFFFFFFFFFF AND DUP2 JUMP JUMPDEST PUSH0 PUSH0 SWAP1 SLOAD SWAP1 PUSH2 0x100 EXP SWAP1 DIV PUSH20 0xFFFFFFFFFFFFFFFFFFFFFFFFFFFFFFFFFFFFFFFF AND PUSH20 0xFFFFFFFFFFFFFFFFFFFFFFFFFFFFFFFFFFFFFFFF AND PUSH4 0x69FE0E2D DUP3 PUSH1 0x40 MLOAD DUP3 PUSH4 0xFFFFFFFF AND PUSH1 0xE0 SHL DUP2 MSTORE PUSH1 0x4 ADD PUSH2 0x116 SWAP2 SWAP1 PUSH2 0x2E7 JUMP JUMPDEST PUSH0 PUSH1 0x40 MLOAD DUP1 DUP4 SUB DUP2 PUSH0 DUP8 DUP1 EXTCODESIZE ISZERO DUP1 ISZERO PUSH2 0x12D JUMPI PUSH0 PUSH0 REVERT JUMPDEST POP GAS CALL ISZERO DUP1 ISZERO PUSH2 0x13F JUMPI RETURNDATASIZE PUSH0 PUSH0 RETURNDATACOPY RETURNDATASIZE PUSH0 REVERT JUMPDEST POP POP POP POP POP JUMP JUMPDEST PUSH0 DUP2 DUP4 PUSH2 0x153 SWAP2 SWAP1 PUSH2 0x32D JUMP JUMPDEST SWAP1 POP PUSH0 PUSH0 SWAP1 SLOAD SWAP1 PUSH2 0x100 EXP SWAP1 DIV PUSH20 0xFFFFFFFFFFFFFFFFFFFFFFFFFFFFFFFFFFFFFFFF AND PUSH20 0xFFFFFFFFFFFFFFFFFFFFFFFFFFFFFFFFFFFFFFFF AND PUSH4 0x7E0A7DEF DUP3 PUSH1 0x40 MLOAD DUP3 PUSH4 0xFFFFFFFF AND PUSH1 0xE0 SHL DUP2 MSTORE PUSH1 0x4 ADD PUSH2 0x1AE SWAP2 SWAP1 PUSH2 0x2E7 JUMP JUMPDEST PUSH0 PUSH1 0x40 MLOAD DUP1 DUP4 SUB DUP2 PUSH0 DUP8 DUP1 EXTCODESIZE ISZERO DUP1 ISZERO PUSH2 0x1C5 JUMPI PUSH0 PUSH0 REVERT JUMPDEST POP GAS CALL ISZERO DUP1 ISZERO PUSH2 0x1D7 JUMPI RETURNDATASIZE PUSH0 PUSH0 RETURNDATACOPY RETURNDATASIZE PUSH0 REVERT JUMPDEST POP POP POP POP POP POP POP JUMP JUMPDEST PUSH0 PUSH20 0xFFFFFFFFFFFFFFFFFFFFFFFFFFFFFFFFFFFFFFFF DUP3 AND SWAP1 POP SWAP2 SWAP1 POP JUMP JUMPDEST PUSH0 PUSH2 0x209 DUP3 PUSH2 0x1E0 JUMP JUMPDEST SWAP1 POP SWAP2 SWAP1 POP JUMP JUMPDEST PUSH2 0x219 DUP2 PUSH2 0x1FF JUMP JUMPDEST DUP3 MSTORE POP POP JUMP JUMPDEST PUSH0 PUSH1 0x20 DUP3 ADD SWAP1 POP PUSH2 0x232 PUSH0 DUP4 ADD DUP5 PUSH2 0x210 JUMP JUMPDEST SWAP3 SWAP2 POP POP JUMP JUMPDEST PUSH0 PUSH0 REVERT JUMPDEST PUSH0 DUP2 SWAP1 POP SWAP2 SWAP1 POP JUMP JUMPDEST PUSH2 0x24E DUP2 PUSH2 0x23C JUMP JUMPDEST DUP2 EQ PUSH2 0x258 JUMPI PUSH0 PUSH0 REVERT JUMPDEST POP JUMP JUMPDEST PUSH0 DUP2 CALLDATALOAD SWAP1 POP PUSH2 0x269 DUP2 PUSH2 0x245 JUMP JUMPDEST SWAP3 SWAP2 POP POP JUMP JUMPDEST PUSH0 PUSH1 0x20 DUP3 DUP5 SUB SLT ISZERO PUSH2 0x284 JUMPI PUSH2 0x283 PUSH2 0x238 JUMP JUMPDEST JUMPDEST PUSH0 PUSH2 0x291 DUP5 DUP3 DUP6 ADD PUSH2 0x25B JUMP JUMPDEST SWAP2 POP POP SWAP3 SWAP2 POP POP JUMP JUMPDEST PUSH0 PUSH0 PUSH1 0x40 DUP4 DUP6 SUB SLT ISZERO PUSH2 0x2B0 JUMPI PUSH2 0x2AF PUSH2 0x238 JUMP JUMPDEST JUMPDEST PUSH0 PUSH2 0x2BD DUP6 DUP3 DUP7 ADD PUSH2 0x25B JUMP JUMPDEST SWAP3 POP POP PUSH1 0x20 PUSH2 0x2CE DUP6 DUP3 DUP7 ADD PUSH2 0x25B JUMP JUMPDEST SWAP2 POP POP SWAP3 POP SWAP3 SWAP1 POP JUMP JUMPDEST PUSH2 0x2E1 DUP2 PUSH2 0x23C JUMP JUMPDEST DUP3 MSTORE POP POP JUMP JUMPDEST PUSH0 PUSH1 0x20 DUP3 ADD SWAP1 POP PUSH2 0x2FA PUSH0 DUP4 ADD DUP5 PUSH2 0x2D8 JUMP JUMPDEST SWAP3 SWAP2 POP POP JUMP JUMPDEST PUSH32 0x4E487B7100000000000000000000000000000000000000000000000000000000 PUSH0 MSTORE PUSH1 0x11 PUSH1 0x4 MSTORE PUSH1 0x24 PUSH0 REVERT JUMPDEST PUSH0 PUSH2 0x337 DUP3 PUSH2 0x23C JUMP JUMPDEST SWAP2 POP PUSH2 0x342 DUP4 PUSH2 0x23C JUMP JUMPDEST SWAP3 POP DUP3 DUP3 MUL PUSH2 0x350 DUP2 PUSH2 0x23C JUMP JUMPDEST SWAP2 POP DUP3 DUP3 DIV DUP5 EQ DUP4 ISZERO OR PUSH2 0x367 JUMPI PUSH2 0x366 PUSH2 0x300 JUMP JUMPDEST JUMPDEST POP SWAP3 SWAP2 POP POP JUMP INVALID LOG2 PUSH5 0x6970667358 0x22 SLT KECCAK256 ADDMOD DIV ORIGIN 0xA9 SWAP8 0x21 0xAA 0xDC PUSH23 0x7743253185DD44B241F8D0F7C769C48B82B10225498A61 PUSH5 0x736F6C6343 STOP ADDMOD 0x1F STOP CALLER "
				},
				"gasEstimates": {
					"creation": {
						"codeDepositCost": "186400",
						"executionCost": "infinite",
						"totalCost": "infinite"
					},
					"external": {
						"dirResultado()": "2485",
						"multiplier(uint256,uint256)": "infinite",
						"setFee(uint256)": "infinite"
					}
				},
				"methodIdentifiers": {
					"dirResultado()": "153f45db",
					"multiplier(uint256,uint256)": "e941b9ac",
					"setFee(uint256)": "69fe0e2d"
				}
			},
			"storageLayout": {
				"storage": [
					{
						"astId": 17,
						"contract": "contracts/Programa/SCConectados/Multiplier.sol:Multiplier",
						"label": "dirResultado",
						"offset": 0,
						"slot": "0",
						"type": "t_address"
					}
				],
				"types": {
					"t_address": {
						"encoding": "inplace",
						"label": "address",
						"numberOfBytes": "20"
					}
				}
			},
			"userdoc": {
				"kind": "user",
				"methods": {},
				"version": 1
			}
		}
	}
}