{
	"contracts/Programa/CryptoBank/CryptoBank.sol": {
		"CryptoBank": {
			"abi": [
				{
					"inputs": [
						{
							"internalType": "uint256",
							"name": "maxBalance_",
							"type": "uint256"
						},
						{
							"internalType": "address",
							"name": "admin_",
							"type": "address"
						}
					],
					"stateMutability": "nonpayable",
					"type": "constructor"
				},
				{
					"anonymous": false,
					"inputs": [
						{
							"indexed": true,
							"internalType": "address",
							"name": "from",
							"type": "address"
						},
						{
							"indexed": false,
							"internalType": "uint256",
							"name": "amount_",
							"type": "uint256"
						}
					],
					"name": "Deposit",
					"type": "event"
				},
				{
					"anonymous": false,
					"inputs": [
						{
							"indexed": true,
							"internalType": "address",
							"name": "from",
							"type": "address"
						},
						{
							"indexed": false,
							"internalType": "uint256",
							"name": "amount_",
							"type": "uint256"
						}
					],
					"name": "Withdraw",
					"type": "event"
				},
				{
					"inputs": [],
					"name": "admin",
					"outputs": [
						{
							"internalType": "address",
							"name": "",
							"type": "address"
						}
					],
					"stateMutability": "view",
					"type": "function"
				},
				{
					"inputs": [],
					"name": "deposit",
					"outputs": [],
					"stateMutability": "payable",
					"type": "function"
				},
				{
					"inputs": [],
					"name": "maxBalance",
					"outputs": [
						{
							"internalType": "uint256",
							"name": "",
							"type": "uint256"
						}
					],
					"stateMutability": "view",
					"type": "function"
				},
				{
					"inputs": [
						{
							"internalType": "address",
							"name": "",
							"type": "address"
						}
					],
					"name": "userBalance",
					"outputs": [
						{
							"internalType": "uint256",
							"name": "",
							"type": "uint256"
						}
					],
					"stateMutability": "view",
					"type": "function"
				},
				{
					"inputs": [
						{
							"internalType": "uint256",
							"name": "amount_",
							"type": "uint256"
						}
					],
					"name": "withdraw",
					"outputs": [],
					"stateMutability": "nonpayable",
					"type": "function"
				}
			],
			"devdoc": {
				"kind": "dev",
				"methods": {},
				"version": 1
			},
			"evm": {
				"assembly": "    /* \"contracts/Programa/CryptoBank/CryptoBank.sol\":519:2136  contract CryptoBank {... */\n  mstore(0x40, 0x80)\n    /* \"contracts/Programa/CryptoBank/CryptoBank.sol\":685:802  constructor(uint256 maxBalance_, address admin_) {... */\n  callvalue\n  dup1\n  iszero\n  tag_1\n  jumpi\n  revert(0x00, 0x00)\ntag_1:\n  pop\n  mload(0x40)\n  sub(codesize, bytecodeSize)\n  dup1\n  bytecodeSize\n  dup4\n  codecopy\n  dup2\n  dup2\n  add\n  0x40\n  mstore\n  dup2\n  add\n  swap1\n  tag_2\n  swap2\n  swap1\n  tag_3\n  jump\t// in\ntag_2:\n    /* \"contracts/Programa/CryptoBank/CryptoBank.sol\":758:769  maxBalance_ */\n  dup2\n    /* \"contracts/Programa/CryptoBank/CryptoBank.sol\":745:755  maxBalance */\n  0x00\n    /* \"contracts/Programa/CryptoBank/CryptoBank.sol\":745:769  maxBalance = maxBalance_ */\n  dup2\n  swap1\n  sstore\n  pop\n    /* \"contracts/Programa/CryptoBank/CryptoBank.sol\":788:794  admin_ */\n  dup1\n    /* \"contracts/Programa/CryptoBank/CryptoBank.sol\":780:785  admin */\n  0x01\n  0x00\n    /* \"contracts/Programa/CryptoBank/CryptoBank.sol\":780:794  admin = admin_ */\n  0x0100\n  exp\n  dup2\n  sload\n  dup2\n  0xffffffffffffffffffffffffffffffffffffffff\n  mul\n  not\n  and\n  swap1\n  dup4\n  0xffffffffffffffffffffffffffffffffffffffff\n  and\n  mul\n  or\n  swap1\n  sstore\n  pop\n    /* \"contracts/Programa/CryptoBank/CryptoBank.sol\":685:802  constructor(uint256 maxBalance_, address admin_) {... */\n  pop\n  pop\n    /* \"contracts/Programa/CryptoBank/CryptoBank.sol\":519:2136  contract CryptoBank {... */\n  jump(tag_6)\n    /* \"#utility.yul\":88:205   */\ntag_8:\n    /* \"#utility.yul\":197:198   */\n  0x00\n    /* \"#utility.yul\":194:195   */\n  0x00\n    /* \"#utility.yul\":187:199   */\n  revert\n    /* \"#utility.yul\":334:411   */\ntag_10:\n    /* \"#utility.yul\":371:378   */\n  0x00\n    /* \"#utility.yul\":400:405   */\n  dup2\n    /* \"#utility.yul\":389:405   */\n  swap1\n  pop\n    /* \"#utility.yul\":334:411   */\n  swap2\n  swap1\n  pop\n  jump\t// out\n    /* \"#utility.yul\":417:539   */\ntag_11:\n    /* \"#utility.yul\":490:514   */\n  tag_23\n    /* \"#utility.yul\":508:513   */\n  dup2\n    /* \"#utility.yul\":490:514   */\n  tag_10\n  jump\t// in\ntag_23:\n    /* \"#utility.yul\":483:488   */\n  dup2\n    /* \"#utility.yul\":480:515   */\n  eq\n    /* \"#utility.yul\":470:533   */\n  tag_24\n  jumpi\n    /* \"#utility.yul\":529:530   */\n  0x00\n    /* \"#utility.yul\":526:527   */\n  0x00\n    /* \"#utility.yul\":519:531   */\n  revert\n    /* \"#utility.yul\":470:533   */\ntag_24:\n    /* \"#utility.yul\":417:539   */\n  pop\n  jump\t// out\n    /* \"#utility.yul\":545:688   */\ntag_12:\n    /* \"#utility.yul\":602:607   */\n  0x00\n    /* \"#utility.yul\":633:639   */\n  dup2\n    /* \"#utility.yul\":627:640   */\n  mload\n    /* \"#utility.yul\":618:640   */\n  swap1\n  pop\n    /* \"#utility.yul\":649:682   */\n  tag_26\n    /* \"#utility.yul\":676:681   */\n  dup2\n    /* \"#utility.yul\":649:682   */\n  tag_11\n  jump\t// in\ntag_26:\n    /* \"#utility.yul\":545:688   */\n  swap3\n  swap2\n  pop\n  pop\n  jump\t// out\n    /* \"#utility.yul\":694:820   */\ntag_13:\n    /* \"#utility.yul\":731:738   */\n  0x00\n    /* \"#utility.yul\":771:813   */\n  0xffffffffffffffffffffffffffffffffffffffff\n    /* \"#utility.yul\":764:769   */\n  dup3\n    /* \"#utility.yul\":760:814   */\n  and\n    /* \"#utility.yul\":749:814   */\n  swap1\n  pop\n    /* \"#utility.yul\":694:820   */\n  swap2\n  swap1\n  pop\n  jump\t// out\n    /* \"#utility.yul\":826:922   */\ntag_14:\n    /* \"#utility.yul\":863:870   */\n  0x00\n    /* \"#utility.yul\":892:916   */\n  tag_29\n    /* \"#utility.yul\":910:915   */\n  dup3\n    /* \"#utility.yul\":892:916   */\n  tag_13\n  jump\t// in\ntag_29:\n    /* \"#utility.yul\":881:916   */\n  swap1\n  pop\n    /* \"#utility.yul\":826:922   */\n  swap2\n  swap1\n  pop\n  jump\t// out\n    /* \"#utility.yul\":928:1050   */\ntag_15:\n    /* \"#utility.yul\":1001:1025   */\n  tag_31\n    /* \"#utility.yul\":1019:1024   */\n  dup2\n    /* \"#utility.yul\":1001:1025   */\n  tag_14\n  jump\t// in\ntag_31:\n    /* \"#utility.yul\":994:999   */\n  dup2\n    /* \"#utility.yul\":991:1026   */\n  eq\n    /* \"#utility.yul\":981:1044   */\n  tag_32\n  jumpi\n    /* \"#utility.yul\":1040:1041   */\n  0x00\n    /* \"#utility.yul\":1037:1038   */\n  0x00\n    /* \"#utility.yul\":1030:1042   */\n  revert\n    /* \"#utility.yul\":981:1044   */\ntag_32:\n    /* \"#utility.yul\":928:1050   */\n  pop\n  jump\t// out\n    /* \"#utility.yul\":1056:1199   */\ntag_16:\n    /* \"#utility.yul\":1113:1118   */\n  0x00\n    /* \"#utility.yul\":1144:1150   */\n  dup2\n    /* \"#utility.yul\":1138:1151   */\n  mload\n    /* \"#utility.yul\":1129:1151   */\n  swap1\n  pop\n    /* \"#utility.yul\":1160:1193   */\n  tag_34\n    /* \"#utility.yul\":1187:1192   */\n  dup2\n    /* \"#utility.yul\":1160:1193   */\n  tag_15\n  jump\t// in\ntag_34:\n    /* \"#utility.yul\":1056:1199   */\n  swap3\n  swap2\n  pop\n  pop\n  jump\t// out\n    /* \"#utility.yul\":1205:1712   */\ntag_3:\n    /* \"#utility.yul\":1284:1290   */\n  0x00\n    /* \"#utility.yul\":1292:1298   */\n  0x00\n    /* \"#utility.yul\":1341:1343   */\n  0x40\n    /* \"#utility.yul\":1329:1338   */\n  dup4\n    /* \"#utility.yul\":1320:1327   */\n  dup6\n    /* \"#utility.yul\":1316:1339   */\n  sub\n    /* \"#utility.yul\":1312:1344   */\n  slt\n    /* \"#utility.yul\":1309:1428   */\n  iszero\n  tag_36\n  jumpi\n    /* \"#utility.yul\":1347:1426   */\n  tag_37\n  tag_8\n  jump\t// in\ntag_37:\n    /* \"#utility.yul\":1309:1428   */\ntag_36:\n    /* \"#utility.yul\":1467:1468   */\n  0x00\n    /* \"#utility.yul\":1492:1556   */\n  tag_38\n    /* \"#utility.yul\":1548:1555   */\n  dup6\n    /* \"#utility.yul\":1539:1545   */\n  dup3\n    /* \"#utility.yul\":1528:1537   */\n  dup7\n    /* \"#utility.yul\":1524:1546   */\n  add\n    /* \"#utility.yul\":1492:1556   */\n  tag_12\n  jump\t// in\ntag_38:\n    /* \"#utility.yul\":1482:1556   */\n  swap3\n  pop\n    /* \"#utility.yul\":1438:1566   */\n  pop\n    /* \"#utility.yul\":1605:1607   */\n  0x20\n    /* \"#utility.yul\":1631:1695   */\n  tag_39\n    /* \"#utility.yul\":1687:1694   */\n  dup6\n    /* \"#utility.yul\":1678:1684   */\n  dup3\n    /* \"#utility.yul\":1667:1676   */\n  dup7\n    /* \"#utility.yul\":1663:1685   */\n  add\n    /* \"#utility.yul\":1631:1695   */\n  tag_16\n  jump\t// in\ntag_39:\n    /* \"#utility.yul\":1621:1695   */\n  swap2\n  pop\n    /* \"#utility.yul\":1576:1705   */\n  pop\n    /* \"#utility.yul\":1205:1712   */\n  swap3\n  pop\n  swap3\n  swap1\n  pop\n  jump\t// out\n    /* \"contracts/Programa/CryptoBank/CryptoBank.sol\":519:2136  contract CryptoBank {... */\ntag_6:\n  dataSize(sub_0)\n  dup1\n  dataOffset(sub_0)\n  0x00\n  codecopy\n  0x00\n  return\nstop\n\nsub_0: assembly {\n        /* \"contracts/Programa/CryptoBank/CryptoBank.sol\":519:2136  contract CryptoBank {... */\n      mstore(0x40, 0x80)\n      jumpi(tag_1, lt(calldatasize, 0x04))\n      shr(0xe0, calldataload(0x00))\n      dup1\n      0x0103c92b\n      eq\n      tag_2\n      jumpi\n      dup1\n      0x2e1a7d4d\n      eq\n      tag_3\n      jumpi\n      dup1\n      0x73ad468a\n      eq\n      tag_4\n      jumpi\n      dup1\n      0xd0e30db0\n      eq\n      tag_5\n      jumpi\n      dup1\n      0xf851a440\n      eq\n      tag_6\n      jumpi\n    tag_1:\n      revert(0x00, 0x00)\n        /* \"contracts/Programa/CryptoBank/CryptoBank.sol\":627:676  mapping ( address => uint256 ) public userBalance */\n    tag_2:\n      callvalue\n      dup1\n      iszero\n      tag_7\n      jumpi\n      revert(0x00, 0x00)\n    tag_7:\n      pop\n      tag_8\n      0x04\n      dup1\n      calldatasize\n      sub\n      dup2\n      add\n      swap1\n      tag_9\n      swap2\n      swap1\n      tag_10\n      jump\t// in\n    tag_9:\n      tag_11\n      jump\t// in\n    tag_8:\n      mload(0x40)\n      tag_12\n      swap2\n      swap1\n      tag_13\n      jump\t// in\n    tag_12:\n      mload(0x40)\n      dup1\n      swap2\n      sub\n      swap1\n      return\n        /* \"contracts/Programa/CryptoBank/CryptoBank.sol\":1562:2102  function withdraw(uint256 amount_) external {... */\n    tag_3:\n      callvalue\n      dup1\n      iszero\n      tag_14\n      jumpi\n      revert(0x00, 0x00)\n    tag_14:\n      pop\n      tag_15\n      0x04\n      dup1\n      calldatasize\n      sub\n      dup2\n      add\n      swap1\n      tag_16\n      swap2\n      swap1\n      tag_17\n      jump\t// in\n    tag_16:\n      tag_18\n      jump\t// in\n    tag_15:\n      stop\n        /* \"contracts/Programa/CryptoBank/CryptoBank.sol\":568:593  uint256 public maxBalance */\n    tag_4:\n      callvalue\n      dup1\n      iszero\n      tag_19\n      jumpi\n      revert(0x00, 0x00)\n    tag_19:\n      pop\n      tag_20\n      tag_21\n      jump\t// in\n    tag_20:\n      mload(0x40)\n      tag_22\n      swap2\n      swap1\n      tag_13\n      jump\t// in\n    tag_22:\n      mload(0x40)\n      dup1\n      swap2\n      sub\n      swap1\n      return\n        /* \"contracts/Programa/CryptoBank/CryptoBank.sol\":1061:1527  function deposit() external payable {... */\n    tag_5:\n      tag_23\n      tag_24\n      jump\t// in\n    tag_23:\n      stop\n        /* \"contracts/Programa/CryptoBank/CryptoBank.sol\":600:620  address public admin */\n    tag_6:\n      callvalue\n      dup1\n      iszero\n      tag_25\n      jumpi\n      revert(0x00, 0x00)\n    tag_25:\n      pop\n      tag_26\n      tag_27\n      jump\t// in\n    tag_26:\n      mload(0x40)\n      tag_28\n      swap2\n      swap1\n      tag_29\n      jump\t// in\n    tag_28:\n      mload(0x40)\n      dup1\n      swap2\n      sub\n      swap1\n      return\n        /* \"contracts/Programa/CryptoBank/CryptoBank.sol\":627:676  mapping ( address => uint256 ) public userBalance */\n    tag_11:\n      mstore(0x20, 0x02)\n      dup1\n      0x00\n      mstore\n      keccak256(0x00, 0x40)\n      0x00\n      swap2\n      pop\n      swap1\n      pop\n      sload\n      dup2\n      jump\t// out\n        /* \"contracts/Programa/CryptoBank/CryptoBank.sol\":1562:2102  function withdraw(uint256 amount_) external {... */\n    tag_18:\n        /* \"contracts/Programa/CryptoBank/CryptoBank.sol\":1712:1723  userBalance */\n      0x02\n        /* \"contracts/Programa/CryptoBank/CryptoBank.sol\":1712:1735  userBalance[msg.sender] */\n      0x00\n        /* \"contracts/Programa/CryptoBank/CryptoBank.sol\":1724:1734  msg.sender */\n      caller\n        /* \"contracts/Programa/CryptoBank/CryptoBank.sol\":1712:1735  userBalance[msg.sender] */\n      0xffffffffffffffffffffffffffffffffffffffff\n      and\n      0xffffffffffffffffffffffffffffffffffffffff\n      and\n      dup2\n      mstore\n      0x20\n      add\n      swap1\n      dup2\n      mstore\n      0x20\n      add\n      0x00\n      keccak256\n      sload\n        /* \"contracts/Programa/CryptoBank/CryptoBank.sol\":1701:1708  amount_ */\n      dup2\n        /* \"contracts/Programa/CryptoBank/CryptoBank.sol\":1701:1735  amount_ <= userBalance[msg.sender] */\n      gt\n      iszero\n        /* \"contracts/Programa/CryptoBank/CryptoBank.sol\":1693:1781  require(amount_ <= userBalance[msg.sender], \"You don't have enough balance to withdraw\") */\n      tag_31\n      jumpi\n      mload(0x40)\n      0x08c379a000000000000000000000000000000000000000000000000000000000\n      dup2\n      mstore\n      0x04\n      add\n      tag_32\n      swap1\n      tag_33\n      jump\t// in\n    tag_32:\n      mload(0x40)\n      dup1\n      swap2\n      sub\n      swap1\n      revert\n    tag_31:\n        /* \"contracts/Programa/CryptoBank/CryptoBank.sol\":1862:1869  amount_ */\n      dup1\n        /* \"contracts/Programa/CryptoBank/CryptoBank.sol\":1835:1846  userBalance */\n      0x02\n        /* \"contracts/Programa/CryptoBank/CryptoBank.sol\":1835:1858  userBalance[msg.sender] */\n      0x00\n        /* \"contracts/Programa/CryptoBank/CryptoBank.sol\":1847:1857  msg.sender */\n      caller\n        /* \"contracts/Programa/CryptoBank/CryptoBank.sol\":1835:1858  userBalance[msg.sender] */\n      0xffffffffffffffffffffffffffffffffffffffff\n      and\n      0xffffffffffffffffffffffffffffffffffffffff\n      and\n      dup2\n      mstore\n      0x20\n      add\n      swap1\n      dup2\n      mstore\n      0x20\n      add\n      0x00\n      keccak256\n      0x00\n        /* \"contracts/Programa/CryptoBank/CryptoBank.sol\":1835:1869  userBalance[msg.sender] -= amount_ */\n      dup3\n      dup3\n      sload\n      tag_34\n      swap2\n      swap1\n      tag_35\n      jump\t// in\n    tag_34:\n      swap3\n      pop\n      pop\n      dup2\n      swap1\n      sstore\n      pop\n        /* \"contracts/Programa/CryptoBank/CryptoBank.sol\":1917:1929  bool success */\n      0x00\n        /* \"contracts/Programa/CryptoBank/CryptoBank.sol\":1934:1944  msg.sender */\n      caller\n        /* \"contracts/Programa/CryptoBank/CryptoBank.sol\":1934:1949  msg.sender.call */\n      0xffffffffffffffffffffffffffffffffffffffff\n      and\n        /* \"contracts/Programa/CryptoBank/CryptoBank.sol\":1957:1964  amount_ */\n      dup3\n        /* \"contracts/Programa/CryptoBank/CryptoBank.sol\":1934:1969  msg.sender.call{value: amount_}(\"\") */\n      mload(0x40)\n      tag_36\n      swap1\n      tag_37\n      jump\t// in\n    tag_36:\n      0x00\n      mload(0x40)\n      dup1\n      dup4\n      sub\n      dup2\n      dup6\n      dup8\n      gas\n      call\n      swap3\n      pop\n      pop\n      pop\n      returndatasize\n      dup1\n      0x00\n      dup2\n      eq\n      tag_40\n      jumpi\n      mload(0x40)\n      swap2\n      pop\n      and(add(returndatasize, 0x3f), not(0x1f))\n      dup3\n      add\n      0x40\n      mstore\n      returndatasize\n      dup3\n      mstore\n      returndatasize\n      0x00\n      0x20\n      dup5\n      add\n      returndatacopy\n      jump(tag_39)\n    tag_40:\n      0x60\n      swap2\n      pop\n    tag_39:\n      pop\n        /* \"contracts/Programa/CryptoBank/CryptoBank.sol\":1916:1969  (bool success,) = msg.sender.call{value: amount_}(\"\") */\n      pop\n      swap1\n      pop\n        /* \"contracts/Programa/CryptoBank/CryptoBank.sol\":1993:2000  success */\n      dup1\n        /* \"contracts/Programa/CryptoBank/CryptoBank.sol\":1985:2020  require(success, \"Transfer failed\") */\n      tag_41\n      jumpi\n      mload(0x40)\n      0x08c379a000000000000000000000000000000000000000000000000000000000\n      dup2\n      mstore\n      0x04\n      add\n      tag_42\n      swap1\n      tag_43\n      jump\t// in\n    tag_42:\n      mload(0x40)\n      dup1\n      swap2\n      sub\n      swap1\n      revert\n    tag_41:\n        /* \"contracts/Programa/CryptoBank/CryptoBank.sol\":2073:2083  msg.sender */\n      caller\n        /* \"contracts/Programa/CryptoBank/CryptoBank.sol\":2064:2093  Withdraw(msg.sender, amount_) */\n      0xffffffffffffffffffffffffffffffffffffffff\n      and\n      0x884edad9ce6fa2440d8a54cc123490eb96d2768479d49ff9c7366125a9424364\n        /* \"contracts/Programa/CryptoBank/CryptoBank.sol\":2085:2092  amount_ */\n      dup4\n        /* \"contracts/Programa/CryptoBank/CryptoBank.sol\":2064:2093  Withdraw(msg.sender, amount_) */\n      mload(0x40)\n      tag_44\n      swap2\n      swap1\n      tag_13\n      jump\t// in\n    tag_44:\n      mload(0x40)\n      dup1\n      swap2\n      sub\n      swap1\n      log2\n        /* \"contracts/Programa/CryptoBank/CryptoBank.sol\":1606:2102  {... */\n      pop\n        /* \"contracts/Programa/CryptoBank/CryptoBank.sol\":1562:2102  function withdraw(uint256 amount_) external {... */\n      pop\n      jump\t// out\n        /* \"contracts/Programa/CryptoBank/CryptoBank.sol\":568:593  uint256 public maxBalance */\n    tag_21:\n      sload(0x00)\n      dup2\n      jump\t// out\n        /* \"contracts/Programa/CryptoBank/CryptoBank.sol\":1061:1527  function deposit() external payable {... */\n    tag_24:\n        /* \"contracts/Programa/CryptoBank/CryptoBank.sol\":1129:1139  maxBalance */\n      sload(0x00)\n        /* \"contracts/Programa/CryptoBank/CryptoBank.sol\":1116:1125  msg.value */\n      callvalue\n        /* \"contracts/Programa/CryptoBank/CryptoBank.sol\":1116:1139  msg.value <= maxBalance */\n      gt\n      iszero\n        /* \"contracts/Programa/CryptoBank/CryptoBank.sol\":1141:1189  string.concat(\"No puedes depositar mas deether\") */\n      add(0x20, mload(0x40))\n      tag_46\n      swap1\n      tag_47\n      jump\t// in\n    tag_46:\n      mload(0x40)\n      0x20\n      dup2\n      dup4\n      sub\n      sub\n      dup2\n      mstore\n      swap1\n      0x40\n      mstore\n        /* \"contracts/Programa/CryptoBank/CryptoBank.sol\":1108:1190  require(msg.value <= maxBalance, string.concat(\"No puedes depositar mas deether\")) */\n      swap1\n      tag_48\n      jumpi\n      mload(0x40)\n      0x08c379a000000000000000000000000000000000000000000000000000000000\n      dup2\n      mstore\n      0x04\n      add\n      tag_49\n      swap2\n      swap1\n      tag_50\n      jump\t// in\n    tag_49:\n      mload(0x40)\n      dup1\n      swap2\n      sub\n      swap1\n      revert\n    tag_48:\n      pop\n        /* \"contracts/Programa/CryptoBank/CryptoBank.sol\":1222:1223  0 */\n      0x00\n        /* \"contracts/Programa/CryptoBank/CryptoBank.sol\":1209:1218  msg.value */\n      callvalue\n        /* \"contracts/Programa/CryptoBank/CryptoBank.sol\":1209:1223  msg.value != 0 */\n      sub\n        /* \"contracts/Programa/CryptoBank/CryptoBank.sol\":1201:1255  require(msg.value != 0, \"No puedes depositar 0 ether\") */\n      tag_51\n      jumpi\n      mload(0x40)\n      0x08c379a000000000000000000000000000000000000000000000000000000000\n      dup2\n      mstore\n      0x04\n      add\n      tag_52\n      swap1\n      tag_53\n      jump\t// in\n    tag_52:\n      mload(0x40)\n      dup1\n      swap2\n      sub\n      swap1\n      revert\n    tag_51:\n        /* \"contracts/Programa/CryptoBank/CryptoBank.sol\":1307:1317  maxBalance */\n      sload(0x00)\n        /* \"contracts/Programa/CryptoBank/CryptoBank.sol\":1295:1304  msg.value */\n      callvalue\n        /* \"contracts/Programa/CryptoBank/CryptoBank.sol\":1269:1280  userBalance */\n      0x02\n        /* \"contracts/Programa/CryptoBank/CryptoBank.sol\":1269:1292  userBalance[msg.sender] */\n      0x00\n        /* \"contracts/Programa/CryptoBank/CryptoBank.sol\":1281:1291  msg.sender */\n      caller\n        /* \"contracts/Programa/CryptoBank/CryptoBank.sol\":1269:1292  userBalance[msg.sender] */\n      0xffffffffffffffffffffffffffffffffffffffff\n      and\n      0xffffffffffffffffffffffffffffffffffffffff\n      and\n      dup2\n      mstore\n      0x20\n      add\n      swap1\n      dup2\n      mstore\n      0x20\n      add\n      0x00\n      keccak256\n      sload\n        /* \"contracts/Programa/CryptoBank/CryptoBank.sol\":1269:1304  userBalance[msg.sender] + msg.value */\n      tag_54\n      swap2\n      swap1\n      tag_55\n      jump\t// in\n    tag_54:\n        /* \"contracts/Programa/CryptoBank/CryptoBank.sol\":1269:1317  userBalance[msg.sender] + msg.value > maxBalance */\n      gt\n        /* \"contracts/Programa/CryptoBank/CryptoBank.sol\":1266:1361  if(userBalance[msg.sender] + msg.value > maxBalance) revert(\"No puedes depositar mas de ether\") */\n      iszero\n      tag_56\n      jumpi\n        /* \"contracts/Programa/CryptoBank/CryptoBank.sol\":1319:1361  revert(\"No puedes depositar mas de ether\") */\n      mload(0x40)\n      0x08c379a000000000000000000000000000000000000000000000000000000000\n      dup2\n      mstore\n      0x04\n      add\n      tag_57\n      swap1\n      tag_58\n      jump\t// in\n    tag_57:\n      mload(0x40)\n      dup1\n      swap2\n      sub\n      swap1\n      revert\n        /* \"contracts/Programa/CryptoBank/CryptoBank.sol\":1266:1361  if(userBalance[msg.sender] + msg.value > maxBalance) revert(\"No puedes depositar mas de ether\") */\n    tag_56:\n        /* \"contracts/Programa/CryptoBank/CryptoBank.sol\":1464:1473  msg.value */\n      callvalue\n        /* \"contracts/Programa/CryptoBank/CryptoBank.sol\":1437:1448  userBalance */\n      0x02\n        /* \"contracts/Programa/CryptoBank/CryptoBank.sol\":1437:1460  userBalance[msg.sender] */\n      0x00\n        /* \"contracts/Programa/CryptoBank/CryptoBank.sol\":1449:1459  msg.sender */\n      caller\n        /* \"contracts/Programa/CryptoBank/CryptoBank.sol\":1437:1460  userBalance[msg.sender] */\n      0xffffffffffffffffffffffffffffffffffffffff\n      and\n      0xffffffffffffffffffffffffffffffffffffffff\n      and\n      dup2\n      mstore\n      0x20\n      add\n      swap1\n      dup2\n      mstore\n      0x20\n      add\n      0x00\n      keccak256\n      0x00\n        /* \"contracts/Programa/CryptoBank/CryptoBank.sol\":1437:1473  userBalance[msg.sender] += msg.value */\n      dup3\n      dup3\n      sload\n      tag_59\n      swap2\n      swap1\n      tag_55\n      jump\t// in\n    tag_59:\n      swap3\n      pop\n      pop\n      dup2\n      swap1\n      sstore\n      pop\n        /* \"contracts/Programa/CryptoBank/CryptoBank.sol\":1497:1507  msg.sender */\n      caller\n        /* \"contracts/Programa/CryptoBank/CryptoBank.sol\":1489:1519  Deposit(msg.sender, msg.value) */\n      0xffffffffffffffffffffffffffffffffffffffff\n      and\n      0xe1fffcc4923d04b559f4d29a8bfc6cda04eb5b0d3c460751c2402c5c5cc9109c\n        /* \"contracts/Programa/CryptoBank/CryptoBank.sol\":1509:1518  msg.value */\n      callvalue\n        /* \"contracts/Programa/CryptoBank/CryptoBank.sol\":1489:1519  Deposit(msg.sender, msg.value) */\n      mload(0x40)\n      tag_60\n      swap2\n      swap1\n      tag_13\n      jump\t// in\n    tag_60:\n      mload(0x40)\n      dup1\n      swap2\n      sub\n      swap1\n      log2\n        /* \"contracts/Programa/CryptoBank/CryptoBank.sol\":1061:1527  function deposit() external payable {... */\n      jump\t// out\n        /* \"contracts/Programa/CryptoBank/CryptoBank.sol\":600:620  address public admin */\n    tag_27:\n      0x01\n      0x00\n      swap1\n      sload\n      swap1\n      0x0100\n      exp\n      swap1\n      div\n      0xffffffffffffffffffffffffffffffffffffffff\n      and\n      dup2\n      jump\t// out\n        /* \"#utility.yul\":88:205   */\n    tag_62:\n        /* \"#utility.yul\":197:198   */\n      0x00\n        /* \"#utility.yul\":194:195   */\n      0x00\n        /* \"#utility.yul\":187:199   */\n      revert\n        /* \"#utility.yul\":334:460   */\n    tag_64:\n        /* \"#utility.yul\":371:378   */\n      0x00\n        /* \"#utility.yul\":411:453   */\n      0xffffffffffffffffffffffffffffffffffffffff\n        /* \"#utility.yul\":404:409   */\n      dup3\n        /* \"#utility.yul\":400:454   */\n      and\n        /* \"#utility.yul\":389:454   */\n      swap1\n      pop\n        /* \"#utility.yul\":334:460   */\n      swap2\n      swap1\n      pop\n      jump\t// out\n        /* \"#utility.yul\":466:562   */\n    tag_65:\n        /* \"#utility.yul\":503:510   */\n      0x00\n        /* \"#utility.yul\":532:556   */\n      tag_97\n        /* \"#utility.yul\":550:555   */\n      dup3\n        /* \"#utility.yul\":532:556   */\n      tag_64\n      jump\t// in\n    tag_97:\n        /* \"#utility.yul\":521:556   */\n      swap1\n      pop\n        /* \"#utility.yul\":466:562   */\n      swap2\n      swap1\n      pop\n      jump\t// out\n        /* \"#utility.yul\":568:690   */\n    tag_66:\n        /* \"#utility.yul\":641:665   */\n      tag_99\n        /* \"#utility.yul\":659:664   */\n      dup2\n        /* \"#utility.yul\":641:665   */\n      tag_65\n      jump\t// in\n    tag_99:\n        /* \"#utility.yul\":634:639   */\n      dup2\n        /* \"#utility.yul\":631:666   */\n      eq\n        /* \"#utility.yul\":621:684   */\n      tag_100\n      jumpi\n        /* \"#utility.yul\":680:681   */\n      0x00\n        /* \"#utility.yul\":677:678   */\n      0x00\n        /* \"#utility.yul\":670:682   */\n      revert\n        /* \"#utility.yul\":621:684   */\n    tag_100:\n        /* \"#utility.yul\":568:690   */\n      pop\n      jump\t// out\n        /* \"#utility.yul\":696:835   */\n    tag_67:\n        /* \"#utility.yul\":742:747   */\n      0x00\n        /* \"#utility.yul\":780:786   */\n      dup2\n        /* \"#utility.yul\":767:787   */\n      calldataload\n        /* \"#utility.yul\":758:787   */\n      swap1\n      pop\n        /* \"#utility.yul\":796:829   */\n      tag_102\n        /* \"#utility.yul\":823:828   */\n      dup2\n        /* \"#utility.yul\":796:829   */\n      tag_66\n      jump\t// in\n    tag_102:\n        /* \"#utility.yul\":696:835   */\n      swap3\n      swap2\n      pop\n      pop\n      jump\t// out\n        /* \"#utility.yul\":841:1170   */\n    tag_10:\n        /* \"#utility.yul\":900:906   */\n      0x00\n        /* \"#utility.yul\":949:951   */\n      0x20\n        /* \"#utility.yul\":937:946   */\n      dup3\n        /* \"#utility.yul\":928:935   */\n      dup5\n        /* \"#utility.yul\":924:947   */\n      sub\n        /* \"#utility.yul\":920:952   */\n      slt\n        /* \"#utility.yul\":917:1036   */\n      iszero\n      tag_104\n      jumpi\n        /* \"#utility.yul\":955:1034   */\n      tag_105\n      tag_62\n      jump\t// in\n    tag_105:\n        /* \"#utility.yul\":917:1036   */\n    tag_104:\n        /* \"#utility.yul\":1075:1076   */\n      0x00\n        /* \"#utility.yul\":1100:1153   */\n      tag_106\n        /* \"#utility.yul\":1145:1152   */\n      dup5\n        /* \"#utility.yul\":1136:1142   */\n      dup3\n        /* \"#utility.yul\":1125:1134   */\n      dup6\n        /* \"#utility.yul\":1121:1143   */\n      add\n        /* \"#utility.yul\":1100:1153   */\n      tag_67\n      jump\t// in\n    tag_106:\n        /* \"#utility.yul\":1090:1153   */\n      swap2\n      pop\n        /* \"#utility.yul\":1046:1163   */\n      pop\n        /* \"#utility.yul\":841:1170   */\n      swap3\n      swap2\n      pop\n      pop\n      jump\t// out\n        /* \"#utility.yul\":1176:1253   */\n    tag_68:\n        /* \"#utility.yul\":1213:1220   */\n      0x00\n        /* \"#utility.yul\":1242:1247   */\n      dup2\n        /* \"#utility.yul\":1231:1247   */\n      swap1\n      pop\n        /* \"#utility.yul\":1176:1253   */\n      swap2\n      swap1\n      pop\n      jump\t// out\n        /* \"#utility.yul\":1259:1377   */\n    tag_69:\n        /* \"#utility.yul\":1346:1370   */\n      tag_109\n        /* \"#utility.yul\":1364:1369   */\n      dup2\n        /* \"#utility.yul\":1346:1370   */\n      tag_68\n      jump\t// in\n    tag_109:\n        /* \"#utility.yul\":1341:1344   */\n      dup3\n        /* \"#utility.yul\":1334:1371   */\n      mstore\n        /* \"#utility.yul\":1259:1377   */\n      pop\n      pop\n      jump\t// out\n        /* \"#utility.yul\":1383:1605   */\n    tag_13:\n        /* \"#utility.yul\":1476:1480   */\n      0x00\n        /* \"#utility.yul\":1514:1516   */\n      0x20\n        /* \"#utility.yul\":1503:1512   */\n      dup3\n        /* \"#utility.yul\":1499:1517   */\n      add\n        /* \"#utility.yul\":1491:1517   */\n      swap1\n      pop\n        /* \"#utility.yul\":1527:1598   */\n      tag_111\n        /* \"#utility.yul\":1595:1596   */\n      0x00\n        /* \"#utility.yul\":1584:1593   */\n      dup4\n        /* \"#utility.yul\":1580:1597   */\n      add\n        /* \"#utility.yul\":1571:1577   */\n      dup5\n        /* \"#utility.yul\":1527:1598   */\n      tag_69\n      jump\t// in\n    tag_111:\n        /* \"#utility.yul\":1383:1605   */\n      swap3\n      swap2\n      pop\n      pop\n      jump\t// out\n        /* \"#utility.yul\":1611:1733   */\n    tag_70:\n        /* \"#utility.yul\":1684:1708   */\n      tag_113\n        /* \"#utility.yul\":1702:1707   */\n      dup2\n        /* \"#utility.yul\":1684:1708   */\n      tag_68\n      jump\t// in\n    tag_113:\n        /* \"#utility.yul\":1677:1682   */\n      dup2\n        /* \"#utility.yul\":1674:1709   */\n      eq\n        /* \"#utility.yul\":1664:1727   */\n      tag_114\n      jumpi\n        /* \"#utility.yul\":1723:1724   */\n      0x00\n        /* \"#utility.yul\":1720:1721   */\n      0x00\n        /* \"#utility.yul\":1713:1725   */\n      revert\n        /* \"#utility.yul\":1664:1727   */\n    tag_114:\n        /* \"#utility.yul\":1611:1733   */\n      pop\n      jump\t// out\n        /* \"#utility.yul\":1739:1878   */\n    tag_71:\n        /* \"#utility.yul\":1785:1790   */\n      0x00\n        /* \"#utility.yul\":1823:1829   */\n      dup2\n        /* \"#utility.yul\":1810:1830   */\n      calldataload\n        /* \"#utility.yul\":1801:1830   */\n      swap1\n      pop\n        /* \"#utility.yul\":1839:1872   */\n      tag_116\n        /* \"#utility.yul\":1866:1871   */\n      dup2\n        /* \"#utility.yul\":1839:1872   */\n      tag_70\n      jump\t// in\n    tag_116:\n        /* \"#utility.yul\":1739:1878   */\n      swap3\n      swap2\n      pop\n      pop\n      jump\t// out\n        /* \"#utility.yul\":1884:2213   */\n    tag_17:\n        /* \"#utility.yul\":1943:1949   */\n      0x00\n        /* \"#utility.yul\":1992:1994   */\n      0x20\n        /* \"#utility.yul\":1980:1989   */\n      dup3\n        /* \"#utility.yul\":1971:1978   */\n      dup5\n        /* \"#utility.yul\":1967:1990   */\n      sub\n        /* \"#utility.yul\":1963:1995   */\n      slt\n        /* \"#utility.yul\":1960:2079   */\n      iszero\n      tag_118\n      jumpi\n        /* \"#utility.yul\":1998:2077   */\n      tag_119\n      tag_62\n      jump\t// in\n    tag_119:\n        /* \"#utility.yul\":1960:2079   */\n    tag_118:\n        /* \"#utility.yul\":2118:2119   */\n      0x00\n        /* \"#utility.yul\":2143:2196   */\n      tag_120\n        /* \"#utility.yul\":2188:2195   */\n      dup5\n        /* \"#utility.yul\":2179:2185   */\n      dup3\n        /* \"#utility.yul\":2168:2177   */\n      dup6\n        /* \"#utility.yul\":2164:2186   */\n      add\n        /* \"#utility.yul\":2143:2196   */\n      tag_71\n      jump\t// in\n    tag_120:\n        /* \"#utility.yul\":2133:2196   */\n      swap2\n      pop\n        /* \"#utility.yul\":2089:2206   */\n      pop\n        /* \"#utility.yul\":1884:2213   */\n      swap3\n      swap2\n      pop\n      pop\n      jump\t// out\n        /* \"#utility.yul\":2219:2337   */\n    tag_72:\n        /* \"#utility.yul\":2306:2330   */\n      tag_122\n        /* \"#utility.yul\":2324:2329   */\n      dup2\n        /* \"#utility.yul\":2306:2330   */\n      tag_65\n      jump\t// in\n    tag_122:\n        /* \"#utility.yul\":2301:2304   */\n      dup3\n        /* \"#utility.yul\":2294:2331   */\n      mstore\n        /* \"#utility.yul\":2219:2337   */\n      pop\n      pop\n      jump\t// out\n        /* \"#utility.yul\":2343:2565   */\n    tag_29:\n        /* \"#utility.yul\":2436:2440   */\n      0x00\n        /* \"#utility.yul\":2474:2476   */\n      0x20\n        /* \"#utility.yul\":2463:2472   */\n      dup3\n        /* \"#utility.yul\":2459:2477   */\n      add\n        /* \"#utility.yul\":2451:2477   */\n      swap1\n      pop\n        /* \"#utility.yul\":2487:2558   */\n      tag_124\n        /* \"#utility.yul\":2555:2556   */\n      0x00\n        /* \"#utility.yul\":2544:2553   */\n      dup4\n        /* \"#utility.yul\":2540:2557   */\n      add\n        /* \"#utility.yul\":2531:2537   */\n      dup5\n        /* \"#utility.yul\":2487:2558   */\n      tag_72\n      jump\t// in\n    tag_124:\n        /* \"#utility.yul\":2343:2565   */\n      swap3\n      swap2\n      pop\n      pop\n      jump\t// out\n        /* \"#utility.yul\":2571:2740   */\n    tag_73:\n        /* \"#utility.yul\":2655:2666   */\n      0x00\n        /* \"#utility.yul\":2689:2695   */\n      dup3\n        /* \"#utility.yul\":2684:2687   */\n      dup3\n        /* \"#utility.yul\":2677:2696   */\n      mstore\n        /* \"#utility.yul\":2729:2733   */\n      0x20\n        /* \"#utility.yul\":2724:2727   */\n      dup3\n        /* \"#utility.yul\":2720:2734   */\n      add\n        /* \"#utility.yul\":2705:2734   */\n      swap1\n      pop\n        /* \"#utility.yul\":2571:2740   */\n      swap3\n      swap2\n      pop\n      pop\n      jump\t// out\n        /* \"#utility.yul\":2746:2974   */\n    tag_74:\n        /* \"#utility.yul\":2886:2920   */\n      0x596f7520646f6e2774206861766520656e6f7567682062616c616e636520746f\n        /* \"#utility.yul\":2882:2883   */\n      0x00\n        /* \"#utility.yul\":2874:2880   */\n      dup3\n        /* \"#utility.yul\":2870:2884   */\n      add\n        /* \"#utility.yul\":2863:2921   */\n      mstore\n        /* \"#utility.yul\":2955:2966   */\n      0x2077697468647261770000000000000000000000000000000000000000000000\n        /* \"#utility.yul\":2950:2952   */\n      0x20\n        /* \"#utility.yul\":2942:2948   */\n      dup3\n        /* \"#utility.yul\":2938:2953   */\n      add\n        /* \"#utility.yul\":2931:2967   */\n      mstore\n        /* \"#utility.yul\":2746:2974   */\n      pop\n      jump\t// out\n        /* \"#utility.yul\":2980:3346   */\n    tag_75:\n        /* \"#utility.yul\":3122:3125   */\n      0x00\n        /* \"#utility.yul\":3143:3210   */\n      tag_128\n        /* \"#utility.yul\":3207:3209   */\n      0x29\n        /* \"#utility.yul\":3202:3205   */\n      dup4\n        /* \"#utility.yul\":3143:3210   */\n      tag_73\n      jump\t// in\n    tag_128:\n        /* \"#utility.yul\":3136:3210   */\n      swap2\n      pop\n        /* \"#utility.yul\":3219:3312   */\n      tag_129\n        /* \"#utility.yul\":3308:3311   */\n      dup3\n        /* \"#utility.yul\":3219:3312   */\n      tag_74\n      jump\t// in\n    tag_129:\n        /* \"#utility.yul\":3337:3339   */\n      0x40\n        /* \"#utility.yul\":3332:3335   */\n      dup3\n        /* \"#utility.yul\":3328:3340   */\n      add\n        /* \"#utility.yul\":3321:3340   */\n      swap1\n      pop\n        /* \"#utility.yul\":2980:3346   */\n      swap2\n      swap1\n      pop\n      jump\t// out\n        /* \"#utility.yul\":3352:3771   */\n    tag_33:\n        /* \"#utility.yul\":3518:3522   */\n      0x00\n        /* \"#utility.yul\":3556:3558   */\n      0x20\n        /* \"#utility.yul\":3545:3554   */\n      dup3\n        /* \"#utility.yul\":3541:3559   */\n      add\n        /* \"#utility.yul\":3533:3559   */\n      swap1\n      pop\n        /* \"#utility.yul\":3605:3614   */\n      dup2\n        /* \"#utility.yul\":3599:3603   */\n      dup2\n        /* \"#utility.yul\":3595:3615   */\n      sub\n        /* \"#utility.yul\":3591:3592   */\n      0x00\n        /* \"#utility.yul\":3580:3589   */\n      dup4\n        /* \"#utility.yul\":3576:3593   */\n      add\n        /* \"#utility.yul\":3569:3616   */\n      mstore\n        /* \"#utility.yul\":3633:3764   */\n      tag_131\n        /* \"#utility.yul\":3759:3763   */\n      dup2\n        /* \"#utility.yul\":3633:3764   */\n      tag_75\n      jump\t// in\n    tag_131:\n        /* \"#utility.yul\":3625:3764   */\n      swap1\n      pop\n        /* \"#utility.yul\":3352:3771   */\n      swap2\n      swap1\n      pop\n      jump\t// out\n        /* \"#utility.yul\":3777:3957   */\n    tag_76:\n        /* \"#utility.yul\":3825:3902   */\n      0x4e487b7100000000000000000000000000000000000000000000000000000000\n        /* \"#utility.yul\":3822:3823   */\n      0x00\n        /* \"#utility.yul\":3815:3903   */\n      mstore\n        /* \"#utility.yul\":3922:3926   */\n      0x11\n        /* \"#utility.yul\":3919:3920   */\n      0x04\n        /* \"#utility.yul\":3912:3927   */\n      mstore\n        /* \"#utility.yul\":3946:3950   */\n      0x24\n        /* \"#utility.yul\":3943:3944   */\n      0x00\n        /* \"#utility.yul\":3936:3951   */\n      revert\n        /* \"#utility.yul\":3963:4157   */\n    tag_35:\n        /* \"#utility.yul\":4003:4007   */\n      0x00\n        /* \"#utility.yul\":4023:4043   */\n      tag_134\n        /* \"#utility.yul\":4041:4042   */\n      dup3\n        /* \"#utility.yul\":4023:4043   */\n      tag_68\n      jump\t// in\n    tag_134:\n        /* \"#utility.yul\":4018:4043   */\n      swap2\n      pop\n        /* \"#utility.yul\":4057:4077   */\n      tag_135\n        /* \"#utility.yul\":4075:4076   */\n      dup4\n        /* \"#utility.yul\":4057:4077   */\n      tag_68\n      jump\t// in\n    tag_135:\n        /* \"#utility.yul\":4052:4077   */\n      swap3\n      pop\n        /* \"#utility.yul\":4101:4102   */\n      dup3\n        /* \"#utility.yul\":4098:4099   */\n      dup3\n        /* \"#utility.yul\":4094:4103   */\n      sub\n        /* \"#utility.yul\":4086:4103   */\n      swap1\n      pop\n        /* \"#utility.yul\":4125:4126   */\n      dup2\n        /* \"#utility.yul\":4119:4123   */\n      dup2\n        /* \"#utility.yul\":4116:4127   */\n      gt\n        /* \"#utility.yul\":4113:4150   */\n      iszero\n      tag_136\n      jumpi\n        /* \"#utility.yul\":4130:4148   */\n      tag_137\n      tag_76\n      jump\t// in\n    tag_137:\n        /* \"#utility.yul\":4113:4150   */\n    tag_136:\n        /* \"#utility.yul\":3963:4157   */\n      swap3\n      swap2\n      pop\n      pop\n      jump\t// out\n        /* \"#utility.yul\":4163:4310   */\n    tag_77:\n        /* \"#utility.yul\":4264:4275   */\n      0x00\n        /* \"#utility.yul\":4301:4304   */\n      dup2\n        /* \"#utility.yul\":4286:4304   */\n      swap1\n      pop\n        /* \"#utility.yul\":4163:4310   */\n      swap3\n      swap2\n      pop\n      pop\n      jump\t// out\n        /* \"#utility.yul\":4316:4430   */\n    tag_78:\n      pop\n      jump\t// out\n        /* \"#utility.yul\":4436:4834   */\n    tag_79:\n        /* \"#utility.yul\":4595:4598   */\n      0x00\n        /* \"#utility.yul\":4616:4699   */\n      tag_141\n        /* \"#utility.yul\":4697:4698   */\n      0x00\n        /* \"#utility.yul\":4692:4695   */\n      dup4\n        /* \"#utility.yul\":4616:4699   */\n      tag_77\n      jump\t// in\n    tag_141:\n        /* \"#utility.yul\":4609:4699   */\n      swap2\n      pop\n        /* \"#utility.yul\":4708:4801   */\n      tag_142\n        /* \"#utility.yul\":4797:4800   */\n      dup3\n        /* \"#utility.yul\":4708:4801   */\n      tag_78\n      jump\t// in\n    tag_142:\n        /* \"#utility.yul\":4826:4827   */\n      0x00\n        /* \"#utility.yul\":4821:4824   */\n      dup3\n        /* \"#utility.yul\":4817:4828   */\n      add\n        /* \"#utility.yul\":4810:4828   */\n      swap1\n      pop\n        /* \"#utility.yul\":4436:4834   */\n      swap2\n      swap1\n      pop\n      jump\t// out\n        /* \"#utility.yul\":4840:5219   */\n    tag_37:\n        /* \"#utility.yul\":5024:5027   */\n      0x00\n        /* \"#utility.yul\":5046:5193   */\n      tag_144\n        /* \"#utility.yul\":5189:5192   */\n      dup3\n        /* \"#utility.yul\":5046:5193   */\n      tag_79\n      jump\t// in\n    tag_144:\n        /* \"#utility.yul\":5039:5193   */\n      swap2\n      pop\n        /* \"#utility.yul\":5210:5213   */\n      dup2\n        /* \"#utility.yul\":5203:5213   */\n      swap1\n      pop\n        /* \"#utility.yul\":4840:5219   */\n      swap2\n      swap1\n      pop\n      jump\t// out\n        /* \"#utility.yul\":5225:5390   */\n    tag_80:\n        /* \"#utility.yul\":5365:5382   */\n      0x5472616e73666572206661696c65640000000000000000000000000000000000\n        /* \"#utility.yul\":5361:5362   */\n      0x00\n        /* \"#utility.yul\":5353:5359   */\n      dup3\n        /* \"#utility.yul\":5349:5363   */\n      add\n        /* \"#utility.yul\":5342:5383   */\n      mstore\n        /* \"#utility.yul\":5225:5390   */\n      pop\n      jump\t// out\n        /* \"#utility.yul\":5396:5762   */\n    tag_81:\n        /* \"#utility.yul\":5538:5541   */\n      0x00\n        /* \"#utility.yul\":5559:5626   */\n      tag_147\n        /* \"#utility.yul\":5623:5625   */\n      0x0f\n        /* \"#utility.yul\":5618:5621   */\n      dup4\n        /* \"#utility.yul\":5559:5626   */\n      tag_73\n      jump\t// in\n    tag_147:\n        /* \"#utility.yul\":5552:5626   */\n      swap2\n      pop\n        /* \"#utility.yul\":5635:5728   */\n      tag_148\n        /* \"#utility.yul\":5724:5727   */\n      dup3\n        /* \"#utility.yul\":5635:5728   */\n      tag_80\n      jump\t// in\n    tag_148:\n        /* \"#utility.yul\":5753:5755   */\n      0x20\n        /* \"#utility.yul\":5748:5751   */\n      dup3\n        /* \"#utility.yul\":5744:5756   */\n      add\n        /* \"#utility.yul\":5737:5756   */\n      swap1\n      pop\n        /* \"#utility.yul\":5396:5762   */\n      swap2\n      swap1\n      pop\n      jump\t// out\n        /* \"#utility.yul\":5768:6187   */\n    tag_43:\n        /* \"#utility.yul\":5934:5938   */\n      0x00\n        /* \"#utility.yul\":5972:5974   */\n      0x20\n        /* \"#utility.yul\":5961:5970   */\n      dup3\n        /* \"#utility.yul\":5957:5975   */\n      add\n        /* \"#utility.yul\":5949:5975   */\n      swap1\n      pop\n        /* \"#utility.yul\":6021:6030   */\n      dup2\n        /* \"#utility.yul\":6015:6019   */\n      dup2\n        /* \"#utility.yul\":6011:6031   */\n      sub\n        /* \"#utility.yul\":6007:6008   */\n      0x00\n        /* \"#utility.yul\":5996:6005   */\n      dup4\n        /* \"#utility.yul\":5992:6009   */\n      add\n        /* \"#utility.yul\":5985:6032   */\n      mstore\n        /* \"#utility.yul\":6049:6180   */\n      tag_150\n        /* \"#utility.yul\":6175:6179   */\n      dup2\n        /* \"#utility.yul\":6049:6180   */\n      tag_81\n      jump\t// in\n    tag_150:\n        /* \"#utility.yul\":6041:6180   */\n      swap1\n      pop\n        /* \"#utility.yul\":5768:6187   */\n      swap2\n      swap1\n      pop\n      jump\t// out\n        /* \"#utility.yul\":6193:6402   */\n    tag_82:\n        /* \"#utility.yul\":6362:6395   */\n      0x4e6f20707565646573206465706f7369746172206d6173206465657468657200\n        /* \"#utility.yul\":6357:6360   */\n      dup2\n        /* \"#utility.yul\":6350:6396   */\n      mstore\n        /* \"#utility.yul\":6193:6402   */\n      pop\n      jump\t// out\n        /* \"#utility.yul\":6408:6790   */\n    tag_47:\n        /* \"#utility.yul\":6583:6586   */\n      0x00\n        /* \"#utility.yul\":6598:6736   */\n      tag_153\n        /* \"#utility.yul\":6732:6735   */\n      dup3\n        /* \"#utility.yul\":6598:6736   */\n      tag_82\n      jump\t// in\n    tag_153:\n        /* \"#utility.yul\":6761:6763   */\n      0x1f\n        /* \"#utility.yul\":6756:6759   */\n      dup3\n        /* \"#utility.yul\":6752:6764   */\n      add\n        /* \"#utility.yul\":6745:6764   */\n      swap2\n      pop\n        /* \"#utility.yul\":6781:6784   */\n      dup2\n        /* \"#utility.yul\":6774:6784   */\n      swap1\n      pop\n        /* \"#utility.yul\":6408:6790   */\n      swap2\n      swap1\n      pop\n      jump\t// out\n        /* \"#utility.yul\":6796:6895   */\n    tag_83:\n        /* \"#utility.yul\":6848:6854   */\n      0x00\n        /* \"#utility.yul\":6882:6887   */\n      dup2\n        /* \"#utility.yul\":6876:6888   */\n      mload\n        /* \"#utility.yul\":6866:6888   */\n      swap1\n      pop\n        /* \"#utility.yul\":6796:6895   */\n      swap2\n      swap1\n      pop\n      jump\t// out\n        /* \"#utility.yul\":6901:7040   */\n    tag_84:\n        /* \"#utility.yul\":6990:6996   */\n      dup3\n        /* \"#utility.yul\":6985:6988   */\n      dup2\n        /* \"#utility.yul\":6980:6983   */\n      dup4\n        /* \"#utility.yul\":6974:6997   */\n      mcopy\n        /* \"#utility.yul\":7031:7032   */\n      0x00\n        /* \"#utility.yul\":7022:7028   */\n      dup4\n        /* \"#utility.yul\":7017:7020   */\n      dup4\n        /* \"#utility.yul\":7013:7029   */\n      add\n        /* \"#utility.yul\":7006:7033   */\n      mstore\n        /* \"#utility.yul\":6901:7040   */\n      pop\n      pop\n      pop\n      jump\t// out\n        /* \"#utility.yul\":7046:7148   */\n    tag_85:\n        /* \"#utility.yul\":7087:7093   */\n      0x00\n        /* \"#utility.yul\":7138:7140   */\n      0x1f\n        /* \"#utility.yul\":7134:7141   */\n      not\n        /* \"#utility.yul\":7129:7131   */\n      0x1f\n        /* \"#utility.yul\":7122:7127   */\n      dup4\n        /* \"#utility.yul\":7118:7132   */\n      add\n        /* \"#utility.yul\":7114:7142   */\n      and\n        /* \"#utility.yul\":7104:7142   */\n      swap1\n      pop\n        /* \"#utility.yul\":7046:7148   */\n      swap2\n      swap1\n      pop\n      jump\t// out\n        /* \"#utility.yul\":7154:7531   */\n    tag_86:\n        /* \"#utility.yul\":7242:7245   */\n      0x00\n        /* \"#utility.yul\":7270:7309   */\n      tag_158\n        /* \"#utility.yul\":7303:7308   */\n      dup3\n        /* \"#utility.yul\":7270:7309   */\n      tag_83\n      jump\t// in\n    tag_158:\n        /* \"#utility.yul\":7325:7396   */\n      tag_159\n        /* \"#utility.yul\":7389:7395   */\n      dup2\n        /* \"#utility.yul\":7384:7387   */\n      dup6\n        /* \"#utility.yul\":7325:7396   */\n      tag_73\n      jump\t// in\n    tag_159:\n        /* \"#utility.yul\":7318:7396   */\n      swap4\n      pop\n        /* \"#utility.yul\":7405:7470   */\n      tag_160\n        /* \"#utility.yul\":7463:7469   */\n      dup2\n        /* \"#utility.yul\":7458:7461   */\n      dup6\n        /* \"#utility.yul\":7451:7455   */\n      0x20\n        /* \"#utility.yul\":7444:7449   */\n      dup7\n        /* \"#utility.yul\":7440:7456   */\n      add\n        /* \"#utility.yul\":7405:7470   */\n      tag_84\n      jump\t// in\n    tag_160:\n        /* \"#utility.yul\":7495:7524   */\n      tag_161\n        /* \"#utility.yul\":7517:7523   */\n      dup2\n        /* \"#utility.yul\":7495:7524   */\n      tag_85\n      jump\t// in\n    tag_161:\n        /* \"#utility.yul\":7490:7493   */\n      dup5\n        /* \"#utility.yul\":7486:7525   */\n      add\n        /* \"#utility.yul\":7479:7525   */\n      swap2\n      pop\n        /* \"#utility.yul\":7246:7531   */\n      pop\n        /* \"#utility.yul\":7154:7531   */\n      swap3\n      swap2\n      pop\n      pop\n      jump\t// out\n        /* \"#utility.yul\":7537:7850   */\n    tag_50:\n        /* \"#utility.yul\":7650:7654   */\n      0x00\n        /* \"#utility.yul\":7688:7690   */\n      0x20\n        /* \"#utility.yul\":7677:7686   */\n      dup3\n        /* \"#utility.yul\":7673:7691   */\n      add\n        /* \"#utility.yul\":7665:7691   */\n      swap1\n      pop\n        /* \"#utility.yul\":7737:7746   */\n      dup2\n        /* \"#utility.yul\":7731:7735   */\n      dup2\n        /* \"#utility.yul\":7727:7747   */\n      sub\n        /* \"#utility.yul\":7723:7724   */\n      0x00\n        /* \"#utility.yul\":7712:7721   */\n      dup4\n        /* \"#utility.yul\":7708:7725   */\n      add\n        /* \"#utility.yul\":7701:7748   */\n      mstore\n        /* \"#utility.yul\":7765:7843   */\n      tag_163\n        /* \"#utility.yul\":7838:7842   */\n      dup2\n        /* \"#utility.yul\":7829:7835   */\n      dup5\n        /* \"#utility.yul\":7765:7843   */\n      tag_86\n      jump\t// in\n    tag_163:\n        /* \"#utility.yul\":7757:7843   */\n      swap1\n      pop\n        /* \"#utility.yul\":7537:7850   */\n      swap3\n      swap2\n      pop\n      pop\n      jump\t// out\n        /* \"#utility.yul\":7856:8033   */\n    tag_87:\n        /* \"#utility.yul\":7996:8025   */\n      0x4e6f20707565646573206465706f736974617220302065746865720000000000\n        /* \"#utility.yul\":7992:7993   */\n      0x00\n        /* \"#utility.yul\":7984:7990   */\n      dup3\n        /* \"#utility.yul\":7980:7994   */\n      add\n        /* \"#utility.yul\":7973:8026   */\n      mstore\n        /* \"#utility.yul\":7856:8033   */\n      pop\n      jump\t// out\n        /* \"#utility.yul\":8039:8405   */\n    tag_88:\n        /* \"#utility.yul\":8181:8184   */\n      0x00\n        /* \"#utility.yul\":8202:8269   */\n      tag_166\n        /* \"#utility.yul\":8266:8268   */\n      0x1b\n        /* \"#utility.yul\":8261:8264   */\n      dup4\n        /* \"#utility.yul\":8202:8269   */\n      tag_73\n      jump\t// in\n    tag_166:\n        /* \"#utility.yul\":8195:8269   */\n      swap2\n      pop\n        /* \"#utility.yul\":8278:8371   */\n      tag_167\n        /* \"#utility.yul\":8367:8370   */\n      dup3\n        /* \"#utility.yul\":8278:8371   */\n      tag_87\n      jump\t// in\n    tag_167:\n        /* \"#utility.yul\":8396:8398   */\n      0x20\n        /* \"#utility.yul\":8391:8394   */\n      dup3\n        /* \"#utility.yul\":8387:8399   */\n      add\n        /* \"#utility.yul\":8380:8399   */\n      swap1\n      pop\n        /* \"#utility.yul\":8039:8405   */\n      swap2\n      swap1\n      pop\n      jump\t// out\n        /* \"#utility.yul\":8411:8830   */\n    tag_53:\n        /* \"#utility.yul\":8577:8581   */\n      0x00\n        /* \"#utility.yul\":8615:8617   */\n      0x20\n        /* \"#utility.yul\":8604:8613   */\n      dup3\n        /* \"#utility.yul\":8600:8618   */\n      add\n        /* \"#utility.yul\":8592:8618   */\n      swap1\n      pop\n        /* \"#utility.yul\":8664:8673   */\n      dup2\n        /* \"#utility.yul\":8658:8662   */\n      dup2\n        /* \"#utility.yul\":8654:8674   */\n      sub\n        /* \"#utility.yul\":8650:8651   */\n      0x00\n        /* \"#utility.yul\":8639:8648   */\n      dup4\n        /* \"#utility.yul\":8635:8652   */\n      add\n        /* \"#utility.yul\":8628:8675   */\n      mstore\n        /* \"#utility.yul\":8692:8823   */\n      tag_169\n        /* \"#utility.yul\":8818:8822   */\n      dup2\n        /* \"#utility.yul\":8692:8823   */\n      tag_88\n      jump\t// in\n    tag_169:\n        /* \"#utility.yul\":8684:8823   */\n      swap1\n      pop\n        /* \"#utility.yul\":8411:8830   */\n      swap2\n      swap1\n      pop\n      jump\t// out\n        /* \"#utility.yul\":8836:9027   */\n    tag_55:\n        /* \"#utility.yul\":8876:8879   */\n      0x00\n        /* \"#utility.yul\":8895:8915   */\n      tag_171\n        /* \"#utility.yul\":8913:8914   */\n      dup3\n        /* \"#utility.yul\":8895:8915   */\n      tag_68\n      jump\t// in\n    tag_171:\n        /* \"#utility.yul\":8890:8915   */\n      swap2\n      pop\n        /* \"#utility.yul\":8929:8949   */\n      tag_172\n        /* \"#utility.yul\":8947:8948   */\n      dup4\n        /* \"#utility.yul\":8929:8949   */\n      tag_68\n      jump\t// in\n    tag_172:\n        /* \"#utility.yul\":8924:8949   */\n      swap3\n      pop\n        /* \"#utility.yul\":8972:8973   */\n      dup3\n        /* \"#utility.yul\":8969:8970   */\n      dup3\n        /* \"#utility.yul\":8965:8974   */\n      add\n        /* \"#utility.yul\":8958:8974   */\n      swap1\n      pop\n        /* \"#utility.yul\":8993:8996   */\n      dup1\n        /* \"#utility.yul\":8990:8991   */\n      dup3\n        /* \"#utility.yul\":8987:8997   */\n      gt\n        /* \"#utility.yul\":8984:9020   */\n      iszero\n      tag_173\n      jumpi\n        /* \"#utility.yul\":9000:9018   */\n      tag_174\n      tag_76\n      jump\t// in\n    tag_174:\n        /* \"#utility.yul\":8984:9020   */\n    tag_173:\n        /* \"#utility.yul\":8836:9027   */\n      swap3\n      swap2\n      pop\n      pop\n      jump\t// out\n        /* \"#utility.yul\":9033:9215   */\n    tag_89:\n        /* \"#utility.yul\":9173:9207   */\n      0x4e6f20707565646573206465706f7369746172206d6173206465206574686572\n        /* \"#utility.yul\":9169:9170   */\n      0x00\n        /* \"#utility.yul\":9161:9167   */\n      dup3\n        /* \"#utility.yul\":9157:9171   */\n      add\n        /* \"#utility.yul\":9150:9208   */\n      mstore\n        /* \"#utility.yul\":9033:9215   */\n      pop\n      jump\t// out\n        /* \"#utility.yul\":9221:9587   */\n    tag_90:\n        /* \"#utility.yul\":9363:9366   */\n      0x00\n        /* \"#utility.yul\":9384:9451   */\n      tag_177\n        /* \"#utility.yul\":9448:9450   */\n      0x20\n        /* \"#utility.yul\":9443:9446   */\n      dup4\n        /* \"#utility.yul\":9384:9451   */\n      tag_73\n      jump\t// in\n    tag_177:\n        /* \"#utility.yul\":9377:9451   */\n      swap2\n      pop\n        /* \"#utility.yul\":9460:9553   */\n      tag_178\n        /* \"#utility.yul\":9549:9552   */\n      dup3\n        /* \"#utility.yul\":9460:9553   */\n      tag_89\n      jump\t// in\n    tag_178:\n        /* \"#utility.yul\":9578:9580   */\n      0x20\n        /* \"#utility.yul\":9573:9576   */\n      dup3\n        /* \"#utility.yul\":9569:9581   */\n      add\n        /* \"#utility.yul\":9562:9581   */\n      swap1\n      pop\n        /* \"#utility.yul\":9221:9587   */\n      swap2\n      swap1\n      pop\n      jump\t// out\n        /* \"#utility.yul\":9593:10012   */\n    tag_58:\n        /* \"#utility.yul\":9759:9763   */\n      0x00\n        /* \"#utility.yul\":9797:9799   */\n      0x20\n        /* \"#utility.yul\":9786:9795   */\n      dup3\n        /* \"#utility.yul\":9782:9800   */\n      add\n        /* \"#utility.yul\":9774:9800   */\n      swap1\n      pop\n        /* \"#utility.yul\":9846:9855   */\n      dup2\n        /* \"#utility.yul\":9840:9844   */\n      dup2\n        /* \"#utility.yul\":9836:9856   */\n      sub\n        /* \"#utility.yul\":9832:9833   */\n      0x00\n        /* \"#utility.yul\":9821:9830   */\n      dup4\n        /* \"#utility.yul\":9817:9834   */\n      add\n        /* \"#utility.yul\":9810:9857   */\n      mstore\n        /* \"#utility.yul\":9874:10005   */\n      tag_180\n        /* \"#utility.yul\":10000:10004   */\n      dup2\n        /* \"#utility.yul\":9874:10005   */\n      tag_90\n      jump\t// in\n    tag_180:\n        /* \"#utility.yul\":9866:10005   */\n      swap1\n      pop\n        /* \"#utility.yul\":9593:10012   */\n      swap2\n      swap1\n      pop\n      jump\t// out\n\n    auxdata: 0xa2646970667358221220d7fb53c87c3bf98f622c1a1f2a688ad0e7ec0cb6b33428b2dd29b386bf93b08e64736f6c634300081f0033\n}\n",
				"bytecode": {
					"linkReferences": {},
					"object": "608060405234801561000f575f5ffd5b50604051610b20380380610b208339818101604052810190610031919061010f565b815f819055508060015f6101000a81548173ffffffffffffffffffffffffffffffffffffffff021916908373ffffffffffffffffffffffffffffffffffffffff160217905550505061014d565b5f5ffd5b5f819050919050565b61009481610082565b811461009e575f5ffd5b50565b5f815190506100af8161008b565b92915050565b5f73ffffffffffffffffffffffffffffffffffffffff82169050919050565b5f6100de826100b5565b9050919050565b6100ee816100d4565b81146100f8575f5ffd5b50565b5f81519050610109816100e5565b92915050565b5f5f604083850312156101255761012461007e565b5b5f610132858286016100a1565b9250506020610143858286016100fb565b9150509250929050565b6109c68061015a5f395ff3fe608060405260043610610049575f3560e01c80630103c92b1461004d5780632e1a7d4d1461008957806373ad468a146100b1578063d0e30db0146100db578063f851a440146100e5575b5f5ffd5b348015610058575f5ffd5b50610073600480360381019061006e919061054f565b61010f565b6040516100809190610592565b60405180910390f35b348015610094575f5ffd5b506100af60048036038101906100aa91906105d5565b610124565b005b3480156100bc575f5ffd5b506100c56102f1565b6040516100d29190610592565b60405180910390f35b6100e36102f6565b005b3480156100f0575f5ffd5b506100f96104cc565b604051610106919061060f565b60405180910390f35b6002602052805f5260405f205f915090505481565b60025f3373ffffffffffffffffffffffffffffffffffffffff1673ffffffffffffffffffffffffffffffffffffffff1681526020019081526020015f20548111156101a4576040517f08c379a000000000000000000000000000000000000000000000000000000000815260040161019b906106a8565b60405180910390fd5b8060025f3373ffffffffffffffffffffffffffffffffffffffff1673ffffffffffffffffffffffffffffffffffffffff1681526020019081526020015f205f8282546101f091906106f3565b925050819055505f3373ffffffffffffffffffffffffffffffffffffffff168260405161021c90610753565b5f6040518083038185875af1925050503d805f8114610256576040519150601f19603f3d011682016040523d82523d5f602084013e61025b565b606091505b505090508061029f576040517f08c379a0000000000000000000000000000000000000000000000000000000008152600401610296906107b1565b60405180910390fd5b3373ffffffffffffffffffffffffffffffffffffffff167f884edad9ce6fa2440d8a54cc123490eb96d2768479d49ff9c7366125a9424364836040516102e59190610592565b60405180910390a25050565b5f5481565b5f5434111560405160200161030a906107f5565b6040516020818303038152906040529061035a576040517f08c379a0000000000000000000000000000000000000000000000000000000008152600401610351919061086d565b60405180910390fd5b505f340361039d576040517f08c379a0000000000000000000000000000000000000000000000000000000008152600401610394906108d7565b60405180910390fd5b5f543460025f3373ffffffffffffffffffffffffffffffffffffffff1673ffffffffffffffffffffffffffffffffffffffff1681526020019081526020015f20546103e891906108f5565b1115610429576040517f08c379a000000000000000000000000000000000000000000000000000000000815260040161042090610972565b60405180910390fd5b3460025f3373ffffffffffffffffffffffffffffffffffffffff1673ffffffffffffffffffffffffffffffffffffffff1681526020019081526020015f205f82825461047591906108f5565b925050819055503373ffffffffffffffffffffffffffffffffffffffff167fe1fffcc4923d04b559f4d29a8bfc6cda04eb5b0d3c460751c2402c5c5cc9109c346040516104c29190610592565b60405180910390a2565b60015f9054906101000a900473ffffffffffffffffffffffffffffffffffffffff1681565b5f5ffd5b5f73ffffffffffffffffffffffffffffffffffffffff82169050919050565b5f61051e826104f5565b9050919050565b61052e81610514565b8114610538575f5ffd5b50565b5f8135905061054981610525565b92915050565b5f60208284031215610564576105636104f1565b5b5f6105718482850161053b565b91505092915050565b5f819050919050565b61058c8161057a565b82525050565b5f6020820190506105a55f830184610583565b92915050565b6105b48161057a565b81146105be575f5ffd5b50565b5f813590506105cf816105ab565b92915050565b5f602082840312156105ea576105e96104f1565b5b5f6105f7848285016105c1565b91505092915050565b61060981610514565b82525050565b5f6020820190506106225f830184610600565b92915050565b5f82825260208201905092915050565b7f596f7520646f6e2774206861766520656e6f7567682062616c616e636520746f5f8201527f2077697468647261770000000000000000000000000000000000000000000000602082015250565b5f610692602983610628565b915061069d82610638565b604082019050919050565b5f6020820190508181035f8301526106bf81610686565b9050919050565b7f4e487b71000000000000000000000000000000000000000000000000000000005f52601160045260245ffd5b5f6106fd8261057a565b91506107088361057a565b92508282039050818111156107205761071f6106c6565b5b92915050565b5f81905092915050565b50565b5f61073e5f83610726565b915061074982610730565b5f82019050919050565b5f61075d82610733565b9150819050919050565b7f5472616e73666572206661696c656400000000000000000000000000000000005f82015250565b5f61079b600f83610628565b91506107a682610767565b602082019050919050565b5f6020820190508181035f8301526107c88161078f565b9050919050565b7f4e6f20707565646573206465706f7369746172206d6173206465657468657200815250565b5f6107ff826107cf565b601f82019150819050919050565b5f81519050919050565b8281835e5f83830152505050565b5f601f19601f8301169050919050565b5f61083f8261080d565b6108498185610628565b9350610859818560208601610817565b61086281610825565b840191505092915050565b5f6020820190508181035f8301526108858184610835565b905092915050565b7f4e6f20707565646573206465706f7369746172203020657468657200000000005f82015250565b5f6108c1601b83610628565b91506108cc8261088d565b602082019050919050565b5f6020820190508181035f8301526108ee816108b5565b9050919050565b5f6108ff8261057a565b915061090a8361057a565b9250828201905080821115610922576109216106c6565b5b92915050565b7f4e6f20707565646573206465706f7369746172206d61732064652065746865725f82015250565b5f61095c602083610628565b915061096782610928565b602082019050919050565b5f6020820190508181035f83015261098981610950565b905091905056fea2646970667358221220d7fb53c87c3bf98f622c1a1f2a688ad0e7ec0cb6b33428b2dd29b386bf93b08e64736f6c634300081f0033",
					"opcodes": "PUSH1 0x80 PUSH1 0x40 MSTORE CALLVALUE DUP1 ISZERO PUSH2 0xF JUMPI PUSH0 PUSH0 REVERT JUMPDEST POP PUSH1 0x40 MLOAD PUSH2 0xB20 CODESIZE SUB DUP1 PUSH2 0xB20 DUP4 CODECOPY DUP2 DUP2 ADD PUSH1 0x40 MSTORE DUP2 ADD SWAP1 PUSH2 0x31 SWAP2 SWAP1 PUSH2 0x10F JUMP JUMPDEST DUP2 PUSH0 DUP2 SWAP1 SSTORE POP DUP1 PUSH1 0x1 PUSH0 PUSH2 0x100 EXP DUP2 SLOAD DUP2 PUSH20 0xFFFFFFFFFFFFFFFFFFFFFFFFFFFFFFFFFFFFFFFF MUL NOT AND SWAP1 DUP4 PUSH20 0xFFFFFFFFFFFFFFFFFFFFFFFFFFFFFFFFFFFFFFFF AND MUL OR SWAP1 SSTORE POP POP POP PUSH2 0x14D JUMP JUMPDEST PUSH0 PUSH0 REVERT JUMPDEST PUSH0 DUP2 SWAP1 POP SWAP2 SWAP1 POP JUMP JUMPDEST PUSH2 0x94 DUP2 PUSH2 0x82 JUMP JUMPDEST DUP2 EQ PUSH2 0x9E JUMPI PUSH0 PUSH0 REVERT JUMPDEST POP JUMP JUMPDEST PUSH0 DUP2 MLOAD SWAP1 POP PUSH2 0xAF DUP2 PUSH2 0x8B JUMP JUMPDEST SWAP3 SWAP2 POP POP JUMP JUMPDEST PUSH0 PUSH20 0xFFFFFFFFFFFFFFFFFFFFFFFFFFFFFFFFFFFFFFFF DUP3 AND SWAP1 POP SWAP2 SWAP1 POP JUMP JUMPDEST PUSH0 PUSH2 0xDE DUP3 PUSH2 0xB5 JUMP JUMPDEST SWAP1 POP SWAP2 SWAP1 POP JUMP JUMPDEST PUSH2 0xEE DUP2 PUSH2 0xD4 JUMP JUMPDEST DUP2 EQ PUSH2 0xF8 JUMPI PUSH0 PUSH0 REVERT JUMPDEST POP JUMP JUMPDEST PUSH0 DUP2 MLOAD SWAP1 POP PUSH2 0x109 DUP2 PUSH2 0xE5 JUMP JUMPDEST SWAP3 SWAP2 POP POP JUMP JUMPDEST PUSH0 PUSH0 PUSH1 0x40 DUP4 DUP6 SUB SLT ISZERO PUSH2 0x125 JUMPI PUSH2 0x124 PUSH2 0x7E JUMP JUMPDEST JUMPDEST PUSH0 PUSH2 0x132 DUP6 DUP3 DUP7 ADD PUSH2 0xA1 JUMP JUMPDEST SWAP3 POP POP PUSH1 0x20 PUSH2 0x143 DUP6 DUP3 DUP7 ADD PUSH2 0xFB JUMP JUMPDEST SWAP2 POP POP SWAP3 POP SWAP3 SWAP1 POP JUMP JUMPDEST PUSH2 0x9C6 DUP1 PUSH2 0x15A PUSH0 CODECOPY PUSH0 RETURN INVALID PUSH1 0x80 PUSH1 0x40 MSTORE PUSH1 0x4 CALLDATASIZE LT PUSH2 0x49 JUMPI PUSH0 CALLDATALOAD PUSH1 0xE0 SHR DUP1 PUSH4 0x103C92B EQ PUSH2 0x4D JUMPI DUP1 PUSH4 0x2E1A7D4D EQ PUSH2 0x89 JUMPI DUP1 PUSH4 0x73AD468A EQ PUSH2 0xB1 JUMPI DUP1 PUSH4 0xD0E30DB0 EQ PUSH2 0xDB JUMPI DUP1 PUSH4 0xF851A440 EQ PUSH2 0xE5 JUMPI JUMPDEST PUSH0 PUSH0 REVERT JUMPDEST CALLVALUE DUP1 ISZERO PUSH2 0x58 JUMPI PUSH0 PUSH0 REVERT JUMPDEST POP PUSH2 0x73 PUSH1 0x4 DUP1 CALLDATASIZE SUB DUP2 ADD SWAP1 PUSH2 0x6E SWAP2 SWAP1 PUSH2 0x54F JUMP JUMPDEST PUSH2 0x10F JUMP JUMPDEST PUSH1 0x40 MLOAD PUSH2 0x80 SWAP2 SWAP1 PUSH2 0x592 JUMP JUMPDEST PUSH1 0x40 MLOAD DUP1 SWAP2 SUB SWAP1 RETURN JUMPDEST CALLVALUE DUP1 ISZERO PUSH2 0x94 JUMPI PUSH0 PUSH0 REVERT JUMPDEST POP PUSH2 0xAF PUSH1 0x4 DUP1 CALLDATASIZE SUB DUP2 ADD SWAP1 PUSH2 0xAA SWAP2 SWAP1 PUSH2 0x5D5 JUMP JUMPDEST PUSH2 0x124 JUMP JUMPDEST STOP JUMPDEST CALLVALUE DUP1 ISZERO PUSH2 0xBC JUMPI PUSH0 PUSH0 REVERT JUMPDEST POP PUSH2 0xC5 PUSH2 0x2F1 JUMP JUMPDEST PUSH1 0x40 MLOAD PUSH2 0xD2 SWAP2 SWAP1 PUSH2 0x592 JUMP JUMPDEST PUSH1 0x40 MLOAD DUP1 SWAP2 SUB SWAP1 RETURN JUMPDEST PUSH2 0xE3 PUSH2 0x2F6 JUMP JUMPDEST STOP JUMPDEST CALLVALUE DUP1 ISZERO PUSH2 0xF0 JUMPI PUSH0 PUSH0 REVERT JUMPDEST POP PUSH2 0xF9 PUSH2 0x4CC JUMP JUMPDEST PUSH1 0x40 MLOAD PUSH2 0x106 SWAP2 SWAP1 PUSH2 0x60F JUMP JUMPDEST PUSH1 0x40 MLOAD DUP1 SWAP2 SUB SWAP1 RETURN JUMPDEST PUSH1 0x2 PUSH1 0x20 MSTORE DUP1 PUSH0 MSTORE PUSH1 0x40 PUSH0 KECCAK256 PUSH0 SWAP2 POP SWAP1 POP SLOAD DUP2 JUMP JUMPDEST PUSH1 0x2 PUSH0 CALLER PUSH20 0xFFFFFFFFFFFFFFFFFFFFFFFFFFFFFFFFFFFFFFFF AND PUSH20 0xFFFFFFFFFFFFFFFFFFFFFFFFFFFFFFFFFFFFFFFF AND DUP2 MSTORE PUSH1 0x20 ADD SWAP1 DUP2 MSTORE PUSH1 0x20 ADD PUSH0 KECCAK256 SLOAD DUP2 GT ISZERO PUSH2 0x1A4 JUMPI PUSH1 0x40 MLOAD PUSH32 0x8C379A000000000000000000000000000000000000000000000000000000000 DUP2 MSTORE PUSH1 0x4 ADD PUSH2 0x19B SWAP1 PUSH2 0x6A8 JUMP JUMPDEST PUSH1 0x40 MLOAD DUP1 SWAP2 SUB SWAP1 REVERT JUMPDEST DUP1 PUSH1 0x2 PUSH0 CALLER PUSH20 0xFFFFFFFFFFFFFFFFFFFFFFFFFFFFFFFFFFFFFFFF AND PUSH20 0xFFFFFFFFFFFFFFFFFFFFFFFFFFFFFFFFFFFFFFFF AND DUP2 MSTORE PUSH1 0x20 ADD SWAP1 DUP2 MSTORE PUSH1 0x20 ADD PUSH0 KECCAK256 PUSH0 DUP3 DUP3 SLOAD PUSH2 0x1F0 SWAP2 SWAP1 PUSH2 0x6F3 JUMP JUMPDEST SWAP3 POP POP DUP2 SWAP1 SSTORE POP PUSH0 CALLER PUSH20 0xFFFFFFFFFFFFFFFFFFFFFFFFFFFFFFFFFFFFFFFF AND DUP3 PUSH1 0x40 MLOAD PUSH2 0x21C SWAP1 PUSH2 0x753 JUMP JUMPDEST PUSH0 PUSH1 0x40 MLOAD DUP1 DUP4 SUB DUP2 DUP6 DUP8 GAS CALL SWAP3 POP POP POP RETURNDATASIZE DUP1 PUSH0 DUP2 EQ PUSH2 0x256 JUMPI PUSH1 0x40 MLOAD SWAP2 POP PUSH1 0x1F NOT PUSH1 0x3F RETURNDATASIZE ADD AND DUP3 ADD PUSH1 0x40 MSTORE RETURNDATASIZE DUP3 MSTORE RETURNDATASIZE PUSH0 PUSH1 0x20 DUP5 ADD RETURNDATACOPY PUSH2 0x25B JUMP JUMPDEST PUSH1 0x60 SWAP2 POP JUMPDEST POP POP SWAP1 POP DUP1 PUSH2 0x29F JUMPI PUSH1 0x40 MLOAD PUSH32 0x8C379A000000000000000000000000000000000000000000000000000000000 DUP2 MSTORE PUSH1 0x4 ADD PUSH2 0x296 SWAP1 PUSH2 0x7B1 JUMP JUMPDEST PUSH1 0x40 MLOAD DUP1 SWAP2 SUB SWAP1 REVERT JUMPDEST CALLER PUSH20 0xFFFFFFFFFFFFFFFFFFFFFFFFFFFFFFFFFFFFFFFF AND PUSH32 0x884EDAD9CE6FA2440D8A54CC123490EB96D2768479D49FF9C7366125A9424364 DUP4 PUSH1 0x40 MLOAD PUSH2 0x2E5 SWAP2 SWAP1 PUSH2 0x592 JUMP JUMPDEST PUSH1 0x40 MLOAD DUP1 SWAP2 SUB SWAP1 LOG2 POP POP JUMP JUMPDEST PUSH0 SLOAD DUP2 JUMP JUMPDEST PUSH0 SLOAD CALLVALUE GT ISZERO PUSH1 0x40 MLOAD PUSH1 0x20 ADD PUSH2 0x30A SWAP1 PUSH2 0x7F5 JUMP JUMPDEST PUSH1 0x40 MLOAD PUSH1 0x20 DUP2 DUP4 SUB SUB DUP2 MSTORE SWAP1 PUSH1 0x40 MSTORE SWAP1 PUSH2 0x35A JUMPI PUSH1 0x40 MLOAD PUSH32 0x8C379A000000000000000000000000000000000000000000000000000000000 DUP2 MSTORE PUSH1 0x4 ADD PUSH2 0x351 SWAP2 SWAP1 PUSH2 0x86D JUMP JUMPDEST PUSH1 0x40 MLOAD DUP1 SWAP2 SUB SWAP1 REVERT JUMPDEST POP PUSH0 CALLVALUE SUB PUSH2 0x39D JUMPI PUSH1 0x40 MLOAD PUSH32 0x8C379A000000000000000000000000000000000000000000000000000000000 DUP2 MSTORE PUSH1 0x4 ADD PUSH2 0x394 SWAP1 PUSH2 0x8D7 JUMP JUMPDEST PUSH1 0x40 MLOAD DUP1 SWAP2 SUB SWAP1 REVERT JUMPDEST PUSH0 SLOAD CALLVALUE PUSH1 0x2 PUSH0 CALLER PUSH20 0xFFFFFFFFFFFFFFFFFFFFFFFFFFFFFFFFFFFFFFFF AND PUSH20 0xFFFFFFFFFFFFFFFFFFFFFFFFFFFFFFFFFFFFFFFF AND DUP2 MSTORE PUSH1 0x20 ADD SWAP1 DUP2 MSTORE PUSH1 0x20 ADD PUSH0 KECCAK256 SLOAD PUSH2 0x3E8 SWAP2 SWAP1 PUSH2 0x8F5 JUMP JUMPDEST GT ISZERO PUSH2 0x429 JUMPI PUSH1 0x40 MLOAD PUSH32 0x8C379A000000000000000000000000000000000000000000000000000000000 DUP2 MSTORE PUSH1 0x4 ADD PUSH2 0x420 SWAP1 PUSH2 0x972 JUMP JUMPDEST PUSH1 0x40 MLOAD DUP1 SWAP2 SUB SWAP1 REVERT JUMPDEST CALLVALUE PUSH1 0x2 PUSH0 CALLER PUSH20 0xFFFFFFFFFFFFFFFFFFFFFFFFFFFFFFFFFFFFFFFF AND PUSH20 0xFFFFFFFFFFFFFFFFFFFFFFFFFFFFFFFFFFFFFFFF AND DUP2 MSTORE PUSH1 0x20 ADD SWAP1 DUP2 MSTORE PUSH1 0x20 ADD PUSH0 KECCAK256 PUSH0 DUP3 DUP3 SLOAD PUSH2 0x475 SWAP2 SWAP1 PUSH2 0x8F5 JUMP JUMPDEST SWAP3 POP POP DUP2 SWAP1 SSTORE POP CALLER PUSH20 0xFFFFFFFFFFFFFFFFFFFFFFFFFFFFFFFFFFFFFFFF AND PUSH32 0xE1FFFCC4923D04B559F4D29A8BFC6CDA04EB5B0D3C460751C2402C5C5CC9109C CALLVALUE PUSH1 0x40 MLOAD PUSH2 0x4C2 SWAP2 SWAP1 PUSH2 0x592 JUMP JUMPDEST PUSH1 0x40 MLOAD DUP1 SWAP2 SUB SWAP1 LOG2 JUMP JUMPDEST PUSH1 0x1 PUSH0 SWAP1 SLOAD SWAP1 PUSH2 0x100 EXP SWAP1 DIV PUSH20 0xFFFFFFFFFFFFFFFFFFFFFFFFFFFFFFFFFFFFFFFF AND DUP2 JUMP JUMPDEST PUSH0 PUSH0 REVERT JUMPDEST PUSH0 PUSH20 0xFFFFFFFFFFFFFFFFFFFFFFFFFFFFFFFFFFFFFFFF DUP3 AND SWAP1 POP SWAP2 SWAP1 POP JUMP JUMPDEST PUSH0 PUSH2 0x51E DUP3 PUSH2 0x4F5 JUMP JUMPDEST SWAP1 POP SWAP2 SWAP1 POP JUMP JUMPDEST PUSH2 0x52E DUP2 PUSH2 0x514 JUMP JUMPDEST DUP2 EQ PUSH2 0x538 JUMPI PUSH0 PUSH0 REVERT JUMPDEST POP JUMP JUMPDEST PUSH0 DUP2 CALLDATALOAD SWAP1 POP PUSH2 0x549 DUP2 PUSH2 0x525 JUMP JUMPDEST SWAP3 SWAP2 POP POP JUMP JUMPDEST PUSH0 PUSH1 0x20 DUP3 DUP5 SUB SLT ISZERO PUSH2 0x564 JUMPI PUSH2 0x563 PUSH2 0x4F1 JUMP JUMPDEST JUMPDEST PUSH0 PUSH2 0x571 DUP5 DUP3 DUP6 ADD PUSH2 0x53B JUMP JUMPDEST SWAP2 POP POP SWAP3 SWAP2 POP POP JUMP JUMPDEST PUSH0 DUP2 SWAP1 POP SWAP2 SWAP1 POP JUMP JUMPDEST PUSH2 0x58C DUP2 PUSH2 0x57A JUMP JUMPDEST DUP3 MSTORE POP POP JUMP JUMPDEST PUSH0 PUSH1 0x20 DUP3 ADD SWAP1 POP PUSH2 0x5A5 PUSH0 DUP4 ADD DUP5 PUSH2 0x583 JUMP JUMPDEST SWAP3 SWAP2 POP POP JUMP JUMPDEST PUSH2 0x5B4 DUP2 PUSH2 0x57A JUMP JUMPDEST DUP2 EQ PUSH2 0x5BE JUMPI PUSH0 PUSH0 REVERT JUMPDEST POP JUMP JUMPDEST PUSH0 DUP2 CALLDATALOAD SWAP1 POP PUSH2 0x5CF DUP2 PUSH2 0x5AB JUMP JUMPDEST SWAP3 SWAP2 POP POP JUMP JUMPDEST PUSH0 PUSH1 0x20 DUP3 DUP5 SUB SLT ISZERO PUSH2 0x5EA JUMPI PUSH2 0x5E9 PUSH2 0x4F1 JUMP JUMPDEST JUMPDEST PUSH0 PUSH2 0x5F7 DUP5 DUP3 DUP6 ADD PUSH2 0x5C1 JUMP JUMPDEST SWAP2 POP POP SWAP3 SWAP2 POP POP JUMP JUMPDEST PUSH2 0x609 DUP2 PUSH2 0x514 JUMP JUMPDEST DUP3 MSTORE POP POP JUMP JUMPDEST PUSH0 PUSH1 0x20 DUP3 ADD SWAP1 POP PUSH2 0x622 PUSH0 DUP4 ADD DUP5 PUSH2 0x600 JUMP JUMPDEST SWAP3 SWAP2 POP POP JUMP JUMPDEST PUSH0 DUP3 DUP3 MSTORE PUSH1 0x20 DUP3 ADD SWAP1 POP SWAP3 SWAP2 POP POP JUMP JUMPDEST PUSH32 0x596F7520646F6E2774206861766520656E6F7567682062616C616E636520746F PUSH0 DUP3 ADD MSTORE PUSH32 0x2077697468647261770000000000000000000000000000000000000000000000 PUSH1 0x20 DUP3 ADD MSTORE POP JUMP JUMPDEST PUSH0 PUSH2 0x692 PUSH1 0x29 DUP4 PUSH2 0x628 JUMP JUMPDEST SWAP2 POP PUSH2 0x69D DUP3 PUSH2 0x638 JUMP JUMPDEST PUSH1 0x40 DUP3 ADD SWAP1 POP SWAP2 SWAP1 POP JUMP JUMPDEST PUSH0 PUSH1 0x20 DUP3 ADD SWAP1 POP DUP2 DUP2 SUB PUSH0 DUP4 ADD MSTORE PUSH2 0x6BF DUP2 PUSH2 0x686 JUMP JUMPDEST SWAP1 POP SWAP2 SWAP1 POP JUMP JUMPDEST PUSH32 0x4E487B7100000000000000000000000000000000000000000000000000000000 PUSH0 MSTORE PUSH1 0x11 PUSH1 0x4 MSTORE PUSH1 0x24 PUSH0 REVERT JUMPDEST PUSH0 PUSH2 0x6FD DUP3 PUSH2 0x57A JUMP JUMPDEST SWAP2 POP PUSH2 0x708 DUP4 PUSH2 0x57A JUMP JUMPDEST SWAP3 POP DUP3 DUP3 SUB SWAP1 POP DUP2 DUP2 GT ISZERO PUSH2 0x720 JUMPI PUSH2 0x71F PUSH2 0x6C6 JUMP JUMPDEST JUMPDEST SWAP3 SWAP2 POP POP JUMP JUMPDEST PUSH0 DUP2 SWAP1 POP SWAP3 SWAP2 POP POP JUMP JUMPDEST POP JUMP JUMPDEST PUSH0 PUSH2 0x73E PUSH0 DUP4 PUSH2 0x726 JUMP JUMPDEST SWAP2 POP PUSH2 0x749 DUP3 PUSH2 0x730 JUMP JUMPDEST PUSH0 DUP3 ADD SWAP1 POP SWAP2 SWAP1 POP JUMP JUMPDEST PUSH0 PUSH2 0x75D DUP3 PUSH2 0x733 JUMP JUMPDEST SWAP2 POP DUP2 SWAP1 POP SWAP2 SWAP1 POP JUMP JUMPDEST PUSH32 0x5472616E73666572206661696C65640000000000000000000000000000000000 PUSH0 DUP3 ADD MSTORE POP JUMP JUMPDEST PUSH0 PUSH2 0x79B PUSH1 0xF DUP4 PUSH2 0x628 JUMP JUMPDEST SWAP2 POP PUSH2 0x7A6 DUP3 PUSH2 0x767 JUMP JUMPDEST PUSH1 0x20 DUP3 ADD SWAP1 POP SWAP2 SWAP1 POP JUMP JUMPDEST PUSH0 PUSH1 0x20 DUP3 ADD SWAP1 POP DUP2 DUP2 SUB PUSH0 DUP4 ADD MSTORE PUSH2 0x7C8 DUP2 PUSH2 0x78F JUMP JUMPDEST SWAP1 POP SWAP2 SWAP1 POP JUMP JUMPDEST PUSH32 0x4E6F20707565646573206465706F7369746172206D6173206465657468657200 DUP2 MSTORE POP JUMP JUMPDEST PUSH0 PUSH2 0x7FF DUP3 PUSH2 0x7CF JUMP JUMPDEST PUSH1 0x1F DUP3 ADD SWAP2 POP DUP2 SWAP1 POP SWAP2 SWAP1 POP JUMP JUMPDEST PUSH0 DUP2 MLOAD SWAP1 POP SWAP2 SWAP1 POP JUMP JUMPDEST DUP3 DUP2 DUP4 MCOPY PUSH0 DUP4 DUP4 ADD MSTORE POP POP POP JUMP JUMPDEST PUSH0 PUSH1 0x1F NOT PUSH1 0x1F DUP4 ADD AND SWAP1 POP SWAP2 SWAP1 POP JUMP JUMPDEST PUSH0 PUSH2 0x83F DUP3 PUSH2 0x80D JUMP JUMPDEST PUSH2 0x849 DUP2 DUP6 PUSH2 0x628 JUMP JUMPDEST SWAP4 POP PUSH2 0x859 DUP2 DUP6 PUSH1 0x20 DUP7 ADD PUSH2 0x817 JUMP JUMPDEST PUSH2 0x862 DUP2 PUSH2 0x825 JUMP JUMPDEST DUP5 ADD SWAP2 POP POP SWAP3 SWAP2 POP POP JUMP JUMPDEST PUSH0 PUSH1 0x20 DUP3 ADD SWAP1 POP DUP2 DUP2 SUB PUSH0 DUP4 ADD MSTORE PUSH2 0x885 DUP2 DUP5 PUSH2 0x835 JUMP JUMPDEST SWAP1 POP SWAP3 SWAP2 POP POP JUMP JUMPDEST PUSH32 0x4E6F20707565646573206465706F736974617220302065746865720000000000 PUSH0 DUP3 ADD MSTORE POP JUMP JUMPDEST PUSH0 PUSH2 0x8C1 PUSH1 0x1B DUP4 PUSH2 0x628 JUMP JUMPDEST SWAP2 POP PUSH2 0x8CC DUP3 PUSH2 0x88D JUMP JUMPDEST PUSH1 0x20 DUP3 ADD SWAP1 POP SWAP2 SWAP1 POP JUMP JUMPDEST PUSH0 PUSH1 0x20 DUP3 ADD SWAP1 POP DUP2 DUP2 SUB PUSH0 DUP4 ADD MSTORE PUSH2 0x8EE DUP2 PUSH2 0x8B5 JUMP JUMPDEST SWAP1 POP SWAP2 SWAP1 POP JUMP JUMPDEST PUSH0 PUSH2 0x8FF DUP3 PUSH2 0x57A JUMP JUMPDEST SWAP2 POP PUSH2 0x90A DUP4 PUSH2 0x57A JUMP JUMPDEST SWAP3 POP DUP3 DUP3 ADD SWAP1 POP DUP1 DUP3 GT ISZERO PUSH2 0x922 JUMPI PUSH2 0x921 PUSH2 0x6C6 JUMP JUMPDEST JUMPDEST SWAP3 SWAP2 POP POP JUMP JUMPDEST PUSH32 0x4E6F20707565646573206465706F7369746172206D6173206465206574686572 PUSH0 DUP3 ADD MSTORE POP JUMP JUMPDEST PUSH0 PUSH2 0x95C PUSH1 0x20 DUP4 PUSH2 0x628 JUMP JUMPDEST SWAP2 POP PUSH2 0x967 DUP3 PUSH2 0x928 JUMP JUMPDEST PUSH1 0x20 DUP3 ADD SWAP1 POP SWAP2 SWAP1 POP JUMP JUMPDEST PUSH0 PUSH1 0x20 DUP3 ADD SWAP1 POP DUP2 DUP2 SUB PUSH0 DUP4 ADD MSTORE PUSH2 0x989 DUP2 PUSH2 0x950 JUMP JUMPDEST SWAP1 POP SWAP2 SWAP1 POP JUMP INVALID LOG2 PUSH5 0x6970667358 0x22 SLT KECCAK256 0xD7 EXTSTATICCALL MSTORE8 0xC8 PUSH29 0x3BF98F622C1A1F2A688AD0E7EC0CB6B33428B2DD29B386BF93B08E6473 PUSH16 0x6C634300081F00330000000000000000 "
				},
				"gasEstimates": {
					"creation": {
						"codeDepositCost": "500400",
						"executionCost": "infinite",
						"totalCost": "infinite"
					},
					"external": {
						"admin()": "2574",
						"deposit()": "infinite",
						"maxBalance()": "2446",
						"userBalance(address)": "2780",
						"withdraw(uint256)": "infinite"
					}
				},
				"methodIdentifiers": {
					"admin()": "f851a440",
					"deposit()": "d0e30db0",
					"maxBalance()": "73ad468a",
					"userBalance(address)": "0103c92b",
					"withdraw(uint256)": "2e1a7d4d"
				}
			},
			"storageLayout": {
				"storage": [
					{
						"astId": 3,
						"contract": "contracts/Programa/CryptoBank/CryptoBank.sol:CryptoBank",
						"label": "maxBalance",
						"offset": 0,
						"slot": "0",
						"type": "t_uint256"
					},
					{
						"astId": 5,
						"contract": "contracts/Programa/CryptoBank/CryptoBank.sol:CryptoBank",
						"label": "admin",
						"offset": 0,
						"slot": "1",
						"type": "t_address"
					},
					{
						"astId": 9,
						"contract": "contracts/Programa/CryptoBank/CryptoBank.sol:CryptoBank",
						"label": "userBalance",
						"offset": 0,
						"slot": "2",
						"type": "t_mapping(t_address,t_uint256)"
					}
				],
				"types": {
					"t_address": {
						"encoding": "inplace",
						"label": "address",
						"numberOfBytes": "20"
					},
					"t_mapping(t_address,t_uint256)": {
						"encoding": "mapping",
						"key": "t_address",
						"label": "mapping(address => uint256)",
						"numberOfBytes": "32",
						"value": "t_uint256"
					},
					"t_uint256": {
						"encoding": "inplace",
						"label": "uint256",
						"numberOfBytes": "32"
					}
				}
			},
			"userdoc": {
				"kind": "user",
				"methods": {},
				"version": 1
			}
		}
	}
}